:020000040800F2
:1000000000100020010500085105000851050008F6
:1000100000000000000000000000000000000000E0
:100020000000000000000000000000005105000872
:100030000000000000000000510500085105000804
:100040005105000800000000510500085105000896
:100050005105000851050008510500085105000828
:100060000000000051050008510500085105000876
:100070005105000851050008510500080000000066
:1000800051050008000000000000000051050008B4
:100090000000000051050008510500085105000846
:1000A0000000000051050008000000005105000894
:1000B0000000000000000000000000000000000040
:1000C00010B5064C2378002B07D1054B002B02D02E
:1000D000044800E000BF0123237010BD0000002091
:1000E000000000009C050008044B10B5002B03D055
:1000F0000349044800E000BF10BDC04600000000F6
:10010000040000209C0500088022164B520219684A
:100110000A431A601A689203FCD5F0215A688A4390
:100120005A605A6810490A4003215A605A688A4343
:10013000110002220A435A605A680C491140802279
:1001400052030A435A608022596852020A435A6095
:100150008022196852040A431A601A689201FCD579
:100160007047C04600100240FFF8FFFFFFFFC3FFCB
:100170000121414BF0B51C680C4206D190243F4A46
:10018000E40514600324196054608021C0253C4BB1
:1001900089025C69394A2143596111680C68AC4392
:1001A0000C60CC68AC43CC60364CBF3D2668364909
:1001B0002E4205D19026F6050E60062625604E607B
:1001C00080245D69A4022C435C610C682F4F266873
:1001D0003E402660E5682E4E3D400127E5603568CB
:1001E0002C4C3D4003D12C4A656022603760802250
:1001F00003275D69D20215435D61256894462E6828
:10020000BE432E60EE68BE43EE600126234F244DB0
:100210003A68324203D1204A6E602A603E606746E7
:100220000C225E6937435F612E68376897433760F9
:10023000F7689743F76001271A4E32683A4206D1B1
:10024000194F154A3A6002227A60012737608026EA
:1002500030225F69F6023E43134F5E613B681E68C1
:1002600096431E60DE689643DE60044B076045607F
:100270008460C1600361F0BDAC000020B0000020CC
:1002800000100240A0000020A4000020FFCFFFFFCC
:1002900094000020980000200004004888000020FE
:1002A0008C0000207C000020800000200123F7B596
:1002B0007749784A8C461168194205D190216446E5
:1002C000C9052160636013608022734B92025969F3
:1002D0000C24114359616146042509680E68A64340
:1002E00035430D60CD68A543CD6001256B490E688F
:1002F0002E4205D190266A4FF6053E607C600D6067
:1003000080245969674D0A435A61654A640412683A
:10031000116829400C4314600124D1682940D16040
:1003200061490D68254206D19025604AED051560AA
:100330000B250C605560802180255C698902214372
:100340005A4A596111685A4E0C68ED0334402543EE
:100350000D600125CC683440CC60564C5649266867
:100360002E4205D19026F6050E600A2625604E60C5
:1003700080275C69BF023C435C610C684F4D266876
:100380002A002E4080256D03354301262560E5684F
:100390001540E5604A4D01972C68344004D1902205
:1003A000484FD20514C72E605F69019C01263C436B
:1003B00003275C61434C25682C68BC4334432C60A4
:1003C000EC68BC43EC60404C2268324206D1902776
:1003D0003E4DFF052F60092726606F6080245D6910
:1003E000A4022C4380255C61384C394F2468ED020F
:1003F00026683E4035432560E5682F400125E760CB
:10040000344C22682A4206D19027334EFF053760CC
:1004100008272560776080245D69A4022C4380252D
:100420005C612D4C2D4F24686D0226683E4035439B
:100430002560E5682F400125E760294C22682A42A3
:1004400004D10F27274E284A256084C680248026A1
:100450005D69E4022C43234D5C612C68F60523683A
:100460009B009B0833432360E3689B009B08E36089
:10047000194B05604360154B01618360114BC360EC
:100480000A4B4361064B83616346C361FEBDC046B0
:100490007400002070000020001002406400002062
:1004A00068000020FFFFFFFC580000205C000020D7
:1004B000FFFF3FFF4C00002050000020FFFFCFFF58
:1004C00040000020440000203400002038000020BC
:1004D000FFFFF3FF280000202C000020FFFFFCFF9F
:1004E0001C000020200000200004004800B58FB050
:1004F00001A8FFF73DFE06A8FFF7D8FE30BFFDE7D5
:100500000D4885460D480E490E4A002302E0D45896
:10051000C4500433C4188C42F9D30B4A0B4C00234B
:1005200001E013600432A242FBD3FFF7EDFD00F0BF
:1005300011F8FFF7DBFFFEE70010002000000020AD
:1005400000000020BC05000800000020B8000020CA
:10055000FEE7000070B500260C4D0D4C641BA41086
:10056000A64209D1002600F019F80A4D0A4C641B76
:10057000A410A64205D170BDB300EB5898470136D0
:10058000EEE7B300EB5898470136F2E7B4050008F0
:10059000B4050008B4050008B8050008F8B5C04661
:1005A000F8BC08BC9E467047F8B5C046F8BC08BC0D
:0405B0009E467047AC
:0405B400E900000852
:0405B800C100000876
:0400000508000501E9
:00000001FF
