:020000040800F2
:10000000001000205D1D0008AD1D0008AD1D00089A
:1000100000000000000000000000000000000000E0
:10002000000000000000000000000000AD1D0008FE
:100030000000000000000000AD1D0008AD0E00082B
:10004000AD1D000800000000AD1D0008AD1D00083A
:10005000AD1D0008C90F0008FD0F00083110000891
:1000600000000000110F00082D0F0008590F0008B4
:10007000AD1D00085D0F00087D0F000800000000A6
:10008000850F00080000000000000000A50F000818
:1000900000000000A70F0008A90F0008AD1D000810
:1000A00000000000AD1D000800000000AD0F0008BA
:1000B0000000000000000000000000000000000040
:1000C00010B5064C2378002B07D1054B002B02D02E
:1000D000044800E000BF0123237010BD040000208D
:1000E00000000000441E0008044B10B5002B03D094
:1000F0000349044800E000BF10BDC04600000000F6
:1001000008000020441E000803B47146490840005E
:100110004900095A49008E4403BC70470022430835
:100120008B4274D303098B425FD3030A8B4244D3BF
:10013000030B8B4228D3030C8B420DD3FF22090201
:1001400012BA030C8B4202D31212090265D0030BC0
:100150008B4219D300E0090AC30B8B4201D3CB03B6
:10016000C01A5241830B8B4201D38B03C01A5241F8
:10017000430B8B4201D34B03C01A5241030B8B42FA
:1001800001D30B03C01A5241C30A8B4201D3CB02E5
:10019000C01A5241830A8B4201D38B02C01A5241CA
:1001A000430A8B4201D34B02C01A5241030A8B42CD
:1001B00001D30B02C01A5241CDD2C3098B4201D3E5
:1001C000CB01C01A524183098B4201D38B01C01A63
:1001D000524143098B4201D34B01C01A52410309DA
:1001E0008B4201D30B01C01A5241C3088B4201D389
:1001F000CB00C01A524183088B4201D38B00C01A36
:10020000524143088B4201D34B00C01A5241411A5C
:1002100000D20146524110467047FFE701B5002069
:1002200000F006F802BDC0460029F7D076E7704717
:100230007047C0468446101C62468C46191C6346B3
:1002400000E0C0461FB500F0D3F8002801D400211B
:10025000C8421FBD10B500F02BF84042013010BD60
:1002600010B500F0C5F8002801DB002010BD01200A
:1002700010BDC04610B500F0BBF8002801DD00201D
:1002800010BD012010BDC04610B500F04DF800288B
:1002900001DC002010BD012010BDC04610B500F0EB
:1002A00043F8002801DA002010BD012010BDC0462F
:1002B000F0B54F464646D6468446C0B58046194EF0
:1002C00018030F034D00000B5C0082463F0B6D0DC1
:1002D000C90F9146640DDB0F0120B5420AD0B4422C
:1002E00003D0A54201D157450CD01CBC904699467D
:1002F000A246F0BD66463E43F7D1AC42F5D1544626
:100300001443F2D10120C845EFD1994207D0002D06
:10031000EBD163461F433800471EB841E5E7002094
:10032000E3E7C046FF070000F0B54F464646D64615
:100330004D00C0B50E03C90F8A462C491F035C004F
:100340008046360B6D0D91463F0B640DDB0F8D42E1
:100350001ED08C4216D0002D1ED130438446002C76
:1003600001D13A4323D06246002A1AD09A4529D0B7
:10037000514602200139084001381CBC904699467C
:10038000A246F0BD39001143E5D002204042F4E717
:100390003043FAD1AC420FD0002C0FD13A43E7D012
:1003A0000CE00122013B934318000130E5E763466E
:1003B0000020002BE1D0DBE73A43E6D19A45D7D1C4
:1003C000A542D5DCA54205DBBE42D1D808D000202D
:1003D000BE42D2D250460123013898430130CCE7C7
:1003E000C845C5D80020C845F4D3C6E7FF070000BC
:1003F000F0B54F464646D6464D00C0B50E03C90F70
:100400008A462E491F035C008046360B6D0D9146CF
:100410003F0B640DDB0F8D4218D08C4211D0002DA4
:1004200018D130438446002C1ED13A431CD1634678
:100430000020002B30D051460220013908400138FD
:100440002AE039001143EAD0022025E03043FBD1F5
:10045000AC4226D0002C26D13A4324D1514602206A
:1004600001390840013817E06246002A0FD09A454A
:10047000E1D1A54205DBBE42DDD819D00020BE4245
:100480000AD25046012301389843013004E001228A
:10049000013B9343180001301CBC90469946A2468C
:1004A000F0BD3A43D0D19A45C5D1A542C3DCE0E7BF
:1004B000C845C0D80020C845E3D3EDE7FF070000DA
:1004C000F0B55746DE464E464546E0B58346060043
:1004D0000F03480087B092461D003F0B400DCC0F24
:1004E000002800D16FE0DE4B984238D08023FF0017
:1004F0001B041F43730F3B430193DA4B00279946BC
:1005000000239B46F60081442B0369001B0B5246D7
:100510009846490DED0F002900D185E0D04B994256
:1005200000D173E04346DA0080231B041343524694
:10053000CC48520F84461343524600206144D200F7
:1005400089442100694000918C46012149448A4632
:100550000F2F00D990E0C449BF00CF59BF465B467A
:100560003B43019300D06AE102230827002681461D
:100570009B46C9E732005846019B6146009102281C
:1005800000D175E0032800D1FEE1012800D02CE164
:1005900000230027002600253F032A0D3F0BB34808
:1005A00012053A4302401B051343009A5B00D10732
:1005B0005B080B433000190007B03CBC90469946DD
:1005C000A246AB46F0BD5B463B43019300D12FE111
:1005D000002F00D1A5E1380000F050FA03000B3BDA
:1005E0001C2B00DD96E11D22D31A5A460100DA4089
:1005F0005E4608398F4013008E403B4301939C4B6D
:1006000000271B1A994600239B467DE74146534627
:100610000B4393498C46E144002B00D01AE102229F
:100620000220174300228CE7134300D10DE143461B
:10063000002B00D181E1404600F020FA02000B3A85
:100640001C2A00DD72E10100434608398B409846C0
:100650001D239A1A5346D3401A0043461343524669
:100660008A404946081A824989468144002068E741
:100670007B4B002700268EE7140C1204120C11008D
:10068000370C3604350C794328008C462E00604325
:100690006044834656432100300C804658467943D7
:1006A00040440291844506D98846802149028C46FF
:1006B000E044414602913604010C360C00048B469E
:1006C00081191E0C1B041B0C0391190079438C46E5
:1006D000280075436544A8465843050C45447743B4
:1006E000A94203D9802149028C466744290C8C46D3
:1006F00039000004000C2D042D186144AB44059111
:100700005946049101990F043F0C080C39005143DC
:100710004243904602008C46090C8B4662437C4360
:1007200044445C44A04503D98021490288464244A0
:10073000210C884661460904090C8C46390059434E
:10074000434370437E430F0CF6182404BE196444DF
:1007500042448C46B34203D980235B02984640440E
:10076000029B61469846049B370443449B46AB4535
:10077000AD416B420D0405992D0C8C467F196744E1
:10078000FD18A8465D462D19A542A4419346644232
:10079000A446C344DC448F42BF4198459B419345E6
:1007A0009241A445A4415B427F421F43360C524212
:1007B0006442BF192243BF18624638184302D20D63
:1007C000039913436A020A43501E82416146ED0DAC
:1007D0002A434E023243D90100D4B3E00126500827
:1007E00032400243DE0732435B08224C5444002C63
:1007F00062DD510709D00F201040042805D0101DDC
:100800009042924152429B180200D90104D58024A3
:100810001948E400034054441848844200DD27E7A7
:100820005E075B02D2081F0B630516435B0DB2E641
:10083000002399460133042700269B4664E60323E0
:10084000019781460C279B465EE601220120174353
:10085000002276E6032303201F43434671E6C04689
:10086000FF07000001FCFFFF5C1E0008FFFF0F8078
:100870000DFCFFFFFF030000FFFFFFFEFE0700006F
:100880000023802700933F030026434B83E6019B10
:100890003200A446584670E6AC466EE680270199C1
:1008A0003F0339422DD03B422BD11F433F033F0B27
:1008B00000951600384B6EE601252D1B382D00DD06
:1008C00066E61F2D40DC35481C005044160082406F
:1008D0008440EE40501E824134431443EB40620793
:1008E00009D00F222240042A05D02200141D944270
:1008F000804140421B181A023ED5012300270026E2
:1009000049E68027019B3F031F433F033F0B0094B1
:10091000214B40E603005A46283B9A4000260192AC
:100920006DE6584600F0AAF8203057E6030052461C
:10093000283B9A401300002293E6504600F09EF8B0
:1009400020307BE6CA4650E71F201E004042041BB1
:10095000E640202D03D0124C5444A3401A43501EAD
:100960008241324307260027164009D00F2000237A
:10097000104014000428B9D122005E075B021F0B4F
:10098000D2081643002306E680273F031F433F0398
:100990003F0B1600004BFEE5FF0700001E040000A1
:1009A0003E04000070B500282DD0C317C5185D4067
:1009B000C40F280000F062F8154B1B1A5B055B0D95
:1009C0000A2815DD0B38854000222D032D0B002150
:1009D00010002D030A0D2D0B12052A430D4D1B058A
:1009E0002A4013435B00E4075B082343190070BDF2
:1009F00002002900153291400A000B21081AC54057
:100A00002D032D0BE3E70024002300250022DEE761
:100A10001E040000FFFF0F8010B5041E25D000F05B
:100A20002DF8144B1B1A5B055B0D0A2812DD0B38E1
:100A3000844000222403240B0021100024030A0D0B
:100A4000240B120522430C4C1B05224013435B0070
:100A5000590810BD02002100153291400A000B21F7
:100A6000081AC4402403240BE6E7002300240022D4
:100A7000E2E7C0461E040000FFFF0F801C21012397
:100A80001B04984201D3000C10391B0A984201D371
:100A9000000A08391B09984201D30009043902A24F
:100AA000105C40187047C0460403020201010101B6
:100AB00000000000000000001F2318401E3B834080
:100AC000014A13607047C04600E100E010B5040021
:100AD000054B08330360A36B3030002B02D0032298
:100AE00001009847200010BDA01E000870B5846862
:100AF000020023000021002B02D099605B68FAE716
:100B000021005369580013691818984209D08E685B
:100B10001D8875198D604968002900D121000233B4
:100B2000F3E7936B002B03D01000D36B3030984762
:100B300070BD0B1A9B10002B14DD0278002A03D025
:100B40004278002A01D1013070478278002A01D111
:100B50000230F9E7C278002A01D10330F4E704300B
:100B6000013BE8E70B1A022B0CD0032B06D0012B1C
:100B700002D10378002BE7D00800E5E70378002BCB
:100B8000E2D001300378002BDED00130F1E70B1A00
:100B90009B10002B14DD0278002A03D14278002A32
:100BA00001D0013070478278002A01D00230F9E785
:100BB000C278002A01D00330F4E70430013BE8E7B3
:100BC0000B1A022B0CD0032B06D0012B02D1037879
:100BD000002BE7D10800E5E70378002BE2D10130D4
:100BE0000378002BDED10130F1E710B50400002CB2
:100BF00005D0236820001B6898476468F7E710BD9C
:100C000003691B0603D5024B4360024B43607047E8
:100C100023016745AB89EFCD01220369934303614B
:100C2000022302691343036180239B02C9184023F6
:100C3000890241610269134303617047F8B50500F9
:100C40003D35040046692878C0B205281AD8FFF758
:100C50005BFA06001A0039007300BC00EE002200A7
:100C600040321378E118F05C097E884200D0FAE047
:100C70000133DBB2012B00D90023137001223C3475
:100C80009A432270F8BD2069C368DB07FAD4036970
:100C90001B06F7D5FFF7B4FF022123691A698A43BF
:100CA0001A610122186902431A61230040331A783D
:100CB000013BB05C18701B78A06B1B0213430380D0
:100CC0002970DFE72369DA689206DBD52022D9682C
:100CD0000A43DA60802219690A431A61210023005D
:100CE00040313F331A780B78E3181A76A36B981CBF
:100CF000E369A063DA00A218D66A7700966A220038
:100D0000F6193E32B04203D01378DBB22B70B9E74C
:100D10000126E01801309B19C677B34200D90023A1
:100D2000E361DB00E3189B6AA36300230B700133CC
:100D30002B7004331370A5E72069C368DB07A1D4C7
:100D400003691B069ED52300210020331E0022319B
:100D5000CA1A9210002A20DD1F78002F03D15F7875
:100D6000002F0DD00133994221D09B1B6362FFF706
:100D700047FF636A3D4AD15CFFF74EFF0423C5E796
:100D80009F78002F01D00233EDE7DF78002F01D0EC
:100D90000333E8E70433013ADCE7CA1A022A0DD02C
:100DA000032A07D0012A0ED11A78002ADBD13E345B
:100DB0002378AAE71A78002AD5D101331A78002AB5
:100DC000D1D10133F0E70B00CDE72369DA68920651
:100DD00000D457E72022D968254E0A43DA608022E2
:100DE00019690A431A61616ACB00E3189A6ADB6ADF
:100DF0005B00D3181000934217D00232971E3F8831
:100E0000B742F7D01B1A260062182000591E8B41EA
:100E100001322236D37720303100FFF7B8FE0323AA
:100E2000864200D072E7002370E71800EAE722004C
:100E3000403213780133DBB2012B11D90023137038
:100E400026002000223631002030FFF7A0FE0323C9
:100E5000864200D100232B7000233E34237011E71B
:100E60001370002BECD0012350E7C0469C1E0008F5
:100E7000FFFF000010B50468002C05D02368200097
:100E80001B689847A468F7E710BD10B50400083048
:100E9000FFF7F0FF20696169431C2361FFF7C4F984
:100EA000002902D12000FFF7E5FF10BD10B5024870
:100EB000FFF7EBFF10BDC0462C030020037B002B87
:100EC0000CD101330373064B5A684260002A00D0EC
:100ED00090601A685860002A00D118607047C046B8
:100EE0002C03002003684268012090401B691840D1
:100EF000431E9841C0B2704710B542680468012390
:100F0000002903D093400800A36110BD1032F9E717
:100F1000044B10B51868FFF768FE0122024B5A60B7
:100F200010BDC0465C02002000000240074B10B517
:100F30001868FFF75AFE1023054C6360054B1868CC
:100F4000FFF753FE80235B00636010BD6402002046
:100F5000000002406C020020FEE70000054B10B5C7
:100F60001868FFF742FE0121034A138A8B4313825C
:100F700010BDC04614030020002C014010B5FFF73F
:100F8000EDFF10BD054B10B51868FFF72EFE0121CF
:100F9000034A138A8B43138210BDC0461C030020F2
:100FA00000040040FEE7FEE7FEE70000044B10B53A
:100FB0001868FFF71AFE0122024B52421A6210BD56
:100FC000240300200038014010B5094C6369DB0799
:100FD00003D5084B1868FFF708FE63699B0703D524
:100FE000054B1868FFF701FE0323636110BDC0467F
:100FF00000040140840200208C02002010B5094C3E
:1010000063695B0703D5084B1868FFF7EEFD63695A
:101010001B0703D5054B1868FFF7E7FD0C23636139
:1010200010BDC04600040140C4020020CC020020D4
:1010300010B52C4C6369DB0603D52B4B1868FFF702
:10104000D4FD63699B0603D5284B1868FFF7CDFDD7
:1010500063695B0603D5264B1868FFF7C6FD636915
:101060001B0603D5234B1868FFF7BFFD6369DB053B
:1010700003D5214B1868FFF7B8FD63699B0503D5BD
:101080001E4B1868FFF7B1FD63695B0503D51C4B68
:101090001868FFF7AAFD63691B0503D5194B18688B
:1010A000FFF7A3FD6369DB0403D5174B1868FFF74F
:1010B0009CFD63699B0403D5144B1868FFF795FDED
:1010C00063695B0403D5124B1868FFF78EFD6369F3
:1010D0001B0403D50F4B1868FFF787FD0E4B6361A8
:1010E00010BDC04600040140D4020020DC020020F4
:1010F000E4020020EC020020F4020020FC020020A8
:10110000940200209C020020A4020020AC020020D7
:10111000B4020020BC020020F0FF00000122436A5C
:1011200019680A431A601A68D207FCD5036A1A685C
:10113000D20703D5012219680A431A60012299686F
:101140000A439A601A68D207FCD5042299680A43B8
:101150009A6070478022164B520219680A431A603F
:101160001A689203FCD5F0215A688A435A605A687B
:1011700010490A4003215A605A688A43110002222A
:101180000A435A605A680C491140802252030A43AC
:101190005A608022596852020A435A6080221968B4
:1011A00052040A431A601A689201FCD57047C0467F
:1011B00000100240FFF8FFFFFFFFC3FF01214F4B6C
:1011C000F0B51A680A4206D190244D4AE40514602D
:1011D0000324196054608021C0254A4B89025C6950
:1011E000474A2143596111680C68AC430C60CC68D4
:1011F000AC43CC60444CBF3D22682A4206D19026C5
:10120000424AF605166006262560566080245D6910
:10121000A4022C433D4A5C6114683D4F26683E4061
:101220002660E5683B4E3D400127E56035683A4C55
:101230003D4003D1394A6560226037608022032730
:101240005D69D20215435D61256894462E68BE43F0
:101250002E60EE68BE43EE600126314F314D3A6894
:10126000324203D12D4A6E602A603E6067460C22EE
:101270005E6937435F612E68376897433760F76868
:101280009743F760284F0B3A3968284E114204D132
:1012900022493A6031600221716080275A69FF0259
:1012A000174330225F613668376897433760F768C5
:1012B0009743F7601E4E2F3A3168114205D11D4FFA
:1012C0001649326039600A21796080265F69F6022A
:1012D0003E43184F5E613B68174A1E6816401E6009
:1012E000DE681640DE60114B07604360074B856087
:1012F0000361034BC4604361F0BDC0464801002058
:101300004C010020001002403C0100204001002060
:10131000FFCFFFFF3001002034010020000400480F
:101320002401002028010020180100201C010020B9
:101330000C01002010010020FFFFCFFF0123F7B5B3
:101340007749784A8C461168194205D19021644644
:10135000C9052160636013608022734B9202596952
:101360000C24114359616146042509680E68A6439F
:1013700035430D60CD68A543CD6001256B490E68EE
:101380002E4205D190266A4FF6053E607C600D60C6
:1013900080245969674D0A435A61654A640412689A
:1013A000116829400C4314600124D1682940D160A0
:1013B00061490D68254206D19025604AED0515600A
:1013C0000B250C605560802180255C6989022143D2
:1013D0005A4A596111685A4E0C68ED03344025434E
:1013E0000D600125CC683440CC60564C56492668C7
:1013F0002E4205D19026F6050E600A2625604E6025
:1014000080275C69BF023C435C610C684F4D2668D5
:101410002A002E4080256D03354301262560E568AE
:101420001540E5604A4D01972C68344004D1902264
:10143000484FD20514C72E605F69019C01263C43CA
:1014400003275C61434C25682C68BC4334432C6003
:10145000EC68BC43EC60404C2268324206D19027D5
:101460003E4DFF052F60092726606F6080245D696F
:10147000A4022C4380255C61384C394F2468ED026E
:1014800026683E4035432560E5682F400125E7602A
:10149000344C22682A4206D19027334EFF0537602C
:1014A00008272560776080245D69A4022C4380258D
:1014B0005C612D4C2D4F24686D0226683E403543FB
:1014C0002560E5682F400125E760294C22682A4203
:1014D00004D10F27274E284A256084C68024802601
:1014E0005D69E4022C43234D5C612C68F60523689A
:1014F0009B009B0833432360E3689B009B08E360E9
:10150000194B05604360154B01618360114BC3604B
:101510000A4B4361064B83616346C361FEBDC0460F
:10152000040100200001002000100240F40000200F
:10153000F8000020FFFFFFFCE8000020EC00002086
:10154000FFFF3FFFDC000020E0000020FFFFCFFF97
:10155000D0000020D4000020C4000020C8000020DB
:10156000FFFFF3FFB8000020BC000020FFFFFCFFDE
:10157000AC000020B00000200004004801233B49DB
:1015800070B50A683A4C134023D1A0610F20394A44
:10159000A36008322260384AE3602262374A6360FF
:1015A0006262374A23616361E361A3631368A262E5
:1015B000E062002B02D1146004E013005A68002A94
:1015C000FBD15C6001232F4A0B6020002E4900F004
:1015D000EEFB802318212D489B00826901251343CF
:1015E0008361236A8026DA6836068A43DA608022BD
:1015F000D96892010A430221DA60DA682A43DA6084
:10160000DA680A43DA601A698A40CA4032431A61CA
:1016100007225E6932435A6142694033154345618E
:101620001020626A9360136883431360136818483C
:1016300018408023DB0003431360136815481840EB
:1016400080235B000343136080231068034313600F
:101650001368042019432023116011680B431360A1
:10166000A36A1856FFF728FA200070BD6800002012
:101670006C000020A01E0008002401400800024069
:101680005C02002000000020CD0A0008001002408B
:10169000FFF3FFFFFFFCFFFF10B50468A14209D173
:1016A0005160002900D00A6043680260002B00D11D
:1016B000426010BD002909D143681360002B00D09F
:1016C0005A604260002CF4D10260F2E70B6851606E
:1016D00013600A6013685A60EBE7000070B5046895
:1016E000194B002C0DD01D00FC356A68043C26689F
:1016F000043A921B9E18B4421ED01A000124FF32F5
:10170000547142688918114A4160914216D84900C3
:101710001D00FC356A689C18043252186A608025E6
:101720006D00AA420DD8FF335B79002B09D1002C44
:1017300000D002C4046070BD6A60E2E70121494242
:10174000E6E70024F6E7C04654010020FCFFFF3F17
:10175000012270B504002C482C4D0368134223D19C
:101760002B492C4B0E68164205D19026F6051E60BB
:1017700004260A605E608022274992024E69324345
:101780004A61C0211A688900166831431160D16826
:10179000224E3140D160EB60012300225B422B617D
:1017A00002332A606A600360E26A00230F2A05D1CF
:1017B000226A1033916A0B43936204232000A168CC
:1017C0002B610830002904D00A69934201DB496883
:1017D000F8E72A00FFF760FF2000A1691030FFF74B
:1017E0007DFF0122636A1968914319602169D960FC
:1017F000616989B2596019680A431A601A68D20788
:10180000FCD5280070BDC0464400002048000020E0
:101810005C0000206000002000100240FFFCFFFF81
:10182000012270B504002C482C4D0368134223D1CB
:101830002B492C4B0E68164205D19026F6051E60EA
:1018400005260A605E608022274992024E69324373
:101850004A61C0211A680901166831431160D168D4
:10186000224E3140D160EB60012300225B422B61AC
:1018700002332A606A600360E26A00230F2A05D1FE
:10188000226A2033916A0B43936205232000A168EA
:101890002B610830002904D00A69934201DB4968B2
:1018A000F8E72A00FFF7F8FE2000A1691030FFF7E3
:1018B00015FF0122636A1968914319602169D96093
:1018C000616989B2596019680A431A601A68D207B7
:1018D000FCD5280070BDC046200000202400002058
:1018E000380000203C00002000100240FFF3FFFF02
:1018F000F0B50025B1B00EAB9D80B54B1FAC0833E1
:101900001F93B44B8022A3622D932EAB1D708123B5
:101910009200E26262630EAA9B181D7082239B18DC
:101920001D702FAB1D700FAB63610123AA49AB483B
:101930005B426560A5602573216323832061E561B7
:10194000258465621581FFF75BF929AE736810A8DD
:101950005A0033689A189A420ED01978012907D88C
:101960005F7861180F760127197847540233F2E740
:1019700019889B4FB942F9D12D9332689A4205D10B
:10198000E5610836012D11D00125DFE771684900B6
:101990005218934200D108E10A270EABFF18E56107
:1019A000390010A8FFF7C5F8B842EAD1E169CB00C9
:1019B000E318DA6A9B6A52009B18A26B9A4206D11E
:1019C000012227AB5A540023E361299B2D930A255A
:1019D0000EABED18290010A8FFF7ABF882270EAB6D
:1019E0000190FF18A84200D0E4E0022225A9606916
:1019F00000F016FA002345203B700EABC018C37FE1
:101A0000002B11D1E369002B0ED0E36A744F5A000A
:101A1000299B19009A180B008A4200D0D0E01300CD
:101A20009B1A5A1E9341C37746210EABC918CB7F30
:101A3000002B13D1E369012B10D0636B2B9A5B0051
:101A4000674FD3181000934204D00232961E368896
:101A5000BE42F7D01B1A581E8341CB7766270EABC8
:101A6000FF18390027A8FFF792F8B84204D0812365
:101A70000EAA9B1803221A708023226911690B4356
:101A80001361019BAB4202D000230EAA9380200079
:101A9000FFF714FA11A8FFF791FB169B17A8049300
:101AA000159B01270593149B0193139B0293FFF74A
:101AB00045FC1E9B102006931D9B07931C9B0893BF
:101AC0001B9B09931A9B0393199B0A93189B0B93D7
:101AD000FFF754FD0400FFF73BFE2000FFF7A0FED8
:101AE00006002000FFF71AFB0FADB2682B88934267
:101AF00000D293B201982B80FFF7F4F90100069809
:101B0000FFF7FAF901000798FFF7F6F90298FFF7D7
:101B1000E9F901000398FFF7EFF901000A98FFF7D0
:101B2000EBF90398FFF7DEF90298FFF7DBF901986C
:101B3000FFF7D8F90400B068FEF76EFF0C900D9126
:101B40002888FEF72FFF274A274BFEF7B9FC020033
:101B50000B000C980D993D1CFEF782FB002800D16C
:101B6000051C2C40E1B20998FFF7C6F90198FFF770
:101B7000B9F905000498FFF7B5F9012401006140A7
:101B80002940C9B20898FFF7B7F90298FFF7AAF9F8
:101B900005000598FFF7A6F9210041402940C9B288
:101BA0000B98FFF7A9F930BF9EE72B0001222033E5
:101BB000E254E6E60122E16927AB5A5405231AE70D
:101BC00002318E1E3688BE4200D124E728E7C04687
:101BD000AC1E0008006800080064000800200240F5
:101BE000FFFF00009A9999999999D93F70B5012200
:101BF00000243C4B02251C605C609C605A61DC60E8
:101C00001C61394B196891431960384959600421A6
:101C10009C601868014319601968354829431960A8
:101C200019680A431A6084222100520000F001F969
:101C30001922304B1D711C602F4B1C601A712F4BE9
:101C400052191C601A712E4B0E3A1C601A712D4BE2
:101C500003321C601A712C4B073A1C601A712B4B13
:101C600001321C601A712A4B1C601A71294B013217
:101C70001C601A71284B1C601A71284B063A1C60B4
:101C80001A71274B1A711C60264B01321A711C60A5
:101C9000254B1A711C600723244A14601371244ACF
:101CA00014601371234A14601371234A1460137172
:101CB000224A14601371224A14601371214A14607D
:101CC0001371214A14601371204A14601371204A61
:101CD000146013711F4A146013711F4A146013714A
:101CE00070BDC0462C03002010E000E07FBB000068
:101CF00054010020040300200C03002024030020D2
:101D0000140300201C0300205C0200206402002059
:101D10006C020020740200207C020020840200205B
:101D20008C020020C4020020CC020020D40200203B
:101D3000DC020020E4020020EC020020F40200207B
:101D4000FC020020940200209C020020A40200203B
:101D5000AC020020B4020020BC0200200D488546E1
:101D60000D480E490E4A002302E0D458C4500433F3
:101D7000C4188C42F9D30B4A0B4C002301E01360CA
:101D80000432A242FBD3FFF7E5F900F025F8FFF794
:101D9000AFFDFEE70010002000000020040000203E
:101DA000C41E00080400002044030020FEE70B00CE
:101DB00010B50100180000F001F810BD10B50400C6
:101DC00004481300002804D00A000220210000E08B
:101DD00000BF10BD0000000070B500260C4D0D4C7A
:101DE000641BA410A64209D1002600F02BF80A4D6E
:101DF0000A4C641BA410A64205D170BDB300EB5879
:101E000098470136EEE7B300EB5898470136F2E702
:101E1000B81E0008B81E0008B81E0008C01E000842
:101E2000002310B59A4200D110BDCC5CC4540133DC
:101E3000F8E703001218934200D17047197001337C
:101E4000F9E70000F8B5C046F8BC08BC9E467047EC
:0C1E5000F8B5C046F8BC08BC9E467047C0
:101E5C00780600087A0500087A050008980800083A
:101E6C00740500087405000880080008980800082C
:101E7C00740500088008000874050008980800081C
:101E8C008E0800088E0800088E0800089C080008C0
:101E9C001A1900000000000000000000ED0A000804
:0C1EAC0000000000000000003D0C0008D9
:081EB800E9000008ED1B000821
:041EC000C100000855
:041EC400000000001A
:0400000508001D5D75
:00000001FF
