:020000040800F2
:100000000010002025230008752300087523000830
:1000100000000000000000000000000000000000E0
:100020000000000000000000000000007523000830
:10003000000000000000000075230008510F0008B8
:1000400075230008000000007523000875230008D0
:1000500075230008C9100008FD10000831110008C0
:1000600000000000111000082D10000859100008B1
:10007000752300085D1000087D10000800000000D6
:10008000851000080000000000000000A510000816
:1000900000000000A7100008A91000087523000840
:1000A000000000007523000800000000AD100008EB
:1000B0000000000000000000000000000000000040
:1000C0000448054B10B5834203D0044B002B00D0ED
:1000D000984710BD0400002004000020000000002C
:1000E00006480749091A8B10C90FC91810B54910DD
:1000F00003D0044B002B00D0984710BD0400002013
:10010000040000200000000010B5074C2378002BED
:1001100009D1FFF7D5FF054B002B02D0044800E0C2
:1001200000BF0123237010BD040000200000000068
:1001300084230008054B10B5002B03D00449054863
:1001400000E000BFFFF7CCFF10BDC046000000007C
:10015000080000208423000870B5064C050000202C
:10016000002C05D0130002300A00290000F0CEF860
:1001700070BDC0460D03000870B50C4D0C4E761BCB
:10018000B61005D0002408CD01349847A642FAD114
:1001900002F0F8F8074D084E761BB61005D0002483
:1001A00008CD01349847A642FAD170BD98250008C1
:1001B0009825000898250008A0250008F0B5C64637
:1001C00000B50F2A43D90B00032603431E400C0041
:1001D0000300002E40D11500103D2D09AC462D0125
:1001E000A846804400E03B00676825685F60E768D8
:1001F0001D60DF601F00A56810379D601034434507
:10020000F1D165460F230C2401352D014919134006
:100210004519144223D08C59AC5104369C1B032C35
:10022000F9D80324043B9B0801339B002240ED18BE
:10023000C918561E002A07D0002300E02300CA5C1C
:100240005C1CEA549E42F9D104BC9046F0BD050006
:10025000561E002AF0D1F7E7561E0500ECE71A00FB
:10026000F6E7C046F0B5050083074AD0541E002AC1
:1002700044D0CEB20300032202E00135013C3DD35D
:1002800001332E701342F8D1032C2FD9FF220A40DC
:10029000150215432A0415430F2C35D92700103FAA
:1002A0003F093E01B4461E001A0010366644156030
:1002B00055609560D5601032B242F8D10F260C22FD
:1002C00001373F012640DB193700224217D03E1F7D
:1002D000B608B400A4461A001C1D644420C2A24201
:1002E000FCD103240136B6009B193C40002C05D0FC
:1002F000C9B21C19197001339C42FBD1F0BD340006
:10030000F4E714000300BFE72700E0E7F0B5464636
:100310004F46D646C0B51F002F4B82B01C68050063
:100320000E009046002C2DD063681F2B50DC002D52
:100330001CD08822A0589146002834D078328258A8
:1003400094469A0091468144424649460A600121FA
:10035000624699400A43944680228A46614652008A
:1003600081504946803A8F50022D16D000205A1CE9
:1003700002339B0062601E5102B01CBC904699463D
:10038000A246F0BD154C1C60154B002BCCD01B6851
:1003900001938823019AE250C6E75546843281587A
:1003A0000D438550E2E70F4B002B11D08420400015
:1003B00000E000BF00280BD08022002352008350B1
:1003C000043283504B460022E05094466368B8E7FD
:1003D00001204042D0E7C046B4010020280100209F
:1003E0009C2300080000000002B47146490849003F
:1003F000095C49008E4402BC7047C0460022430895
:100400008B4274D303098B425FD3030A8B4244D3DC
:10041000030B8B4228D3030C8B420DD3FF2209021E
:1004200012BA030C8B4202D31212090265D0030BDD
:100430008B4219D300E0090AC30B8B4201D3CB03D3
:10044000C01A5241830B8B4201D38B03C01A524115
:10045000430B8B4201D34B03C01A5241030B8B4217
:1004600001D30B03C01A5241C30A8B4201D3CB0202
:10047000C01A5241830A8B4201D38B02C01A5241E7
:10048000430A8B4201D34B02C01A5241030A8B42EA
:1004900001D30B02C01A5241CDD2C3098B4201D302
:1004A000CB01C01A524183098B4201D38B01C01A80
:1004B000524143098B4201D34B01C01A52410309F7
:1004C0008B4201D30B01C01A5241C3088B4201D3A6
:1004D000CB00C01A524183088B4201D38B00C01A53
:1004E000524143088B4201D34B00C01A5241411A7A
:1004F00000D20146524110467047FFE701B5002087
:1005000000F006F802BDC0460029F7D076E7704734
:100510007047C0468446101C62468C46191C6346D0
:1005200000E0C0461FB500F0E1F8002801D400212A
:10053000C8421FBD10B500F02BF84042013010BD7D
:1005400010B500F0D3F8002801DB002010BD012019
:1005500010BDC04610B500F0C9F8002801DD00202C
:1005600010BD012010BDC04610B500F04DF80028A8
:1005700001DC002010BD012010BDC04610B500F008
:1005800043F8002801DA002010BD012010BDC0464C
:10059000F0B54F464646D646944691461A03120B8E
:1005A000184DC0B54C000F0392465A000600804615
:1005B0003F0B0120640DC90F520DDB0FAC420AD076
:1005C000AA4203D0944201D157450DD01CBC90469D
:1005D0009946A246F0BD3D003543F7D1A242F5D180
:1005E000524665462A43F1D10120C845EED19942D1
:1005F00006D0002CEAD13E433000461EB041E5E76C
:100600000020E3E7FF070000F0B54E464546574699
:10061000DE4604001800E0B516001B031B0B324D2C
:100620000F034A0099464300A446B0463F0B520DC3
:10063000C90F5B0DC00FAA4229D0AB4218D0002AC7
:100640002AD13C43A34665426541002B02D14C466A
:10065000264327D0002D15D1814228D00220013910
:10066000084001383CBC90469946A246AB46F0BDD6
:100670004D462E432FD1002AEED13C4365426541C1
:10068000002DE9D00028EDD101204042EAE73D00ED
:10069000254320D19342EBD0002BDDD14C4626439D
:1006A000DAD1DBE75B460020002BDBD0D6E79A42AD
:1006B0000ADCE7DB4F45D1D810D000204F45D1D21E
:1006C0000029E1D00800CDE74342584102234042CF
:1006D00018400138C6E702204042C3E7C445BDD8F0
:1006E0000020C445BED2EBE7FF070000F0B54E4640
:1006F00045465746DE4604001800E0B516001B03C9
:100700001B0B314D0F034A0099464300A446B046E7
:100710003F0B520DC90F5B0DC00FAA4211D0AB4267
:1007200014D0002A2FD13C43A34665426541002BDB
:1007300014D14C46264311D15B460020002B17D024
:1007400010E03D00254312D193421CD14D462E436B
:100750000DD1002A04D13C4365426541002D0DD1E5
:10076000814216D0022001390840013800E0022001
:100770003CBC90469946A246AB46F0BD0028F7D156
:1007800001204042F4E7002BEAD14C462643E7D152
:10079000E8E79A4206DD43425841022340421840AE
:1007A0000138E5E79A42E9DB4F45DBD806D0002067
:1007B0004F45DDD20029E3D00800D9E7C445D1D8A0
:1007C0000020C445D4D2F5E7FF070000F0B5574636
:1007D0004E464546DE46E0B598460C034B00060003
:1007E000924687B0240B5B0DCF0F002B6CD0DD4AF7
:1007F000934200D186E0420FE400144380221204A9
:100800001443D94AC5009446634400930023994693
:100810009B46434642461E03D20F5B00504690461D
:10082000360B5B0D00D178E0CE4A93421DD0CE4905
:10083000420F8C4600996344F6008C461643802292
:100840009C44120463461643C200002000930099A2
:10085000434601318C4649467B4001930F2900D91C
:100860007EE0C24B890059588F465246009B324366
:1008700000D056E1BB4900268C46634449460093AC
:100880000223194389460220E1E7434601933400DD
:10089000150083465B46022B5ED0032B00D1F3E1AB
:1008A000012B00D018E1002200240025019B120535
:1008B0002243DB071A432800110007B03CBC9046D6
:1008C0009946A246AB46F0BD2500054300D141E163
:1008D000002C00D1ADE1200000F03AFA0100020046
:1008E0000B391D2310005B1A310035000838844095
:1008F000D94085400C439E48831A009300239946B3
:100900009B4686E70500254300D01CE108220093A2
:100910000223002491469B467BE75246324300D196
:100920000AE1002E00D176E1300000F011FA020059
:100930000B3A1D2301009B1A52460839DA408E40BB
:10094000164352468A40009B8949181A03008C4678
:100950006344002000937AE700240025814AA5E73C
:100960002F0C2D042D0C2B00110C1204120C5343D0
:100970009846130028007B439946484348448346E1
:1009800040460B00000C824658467B43504402937D
:10099000814506D99A4680235B029946CA4453464C
:1009A0000293030C9B4643461B0400041B0C984611
:1009B000030043440493330C99462B003604360C51
:1009C0007343984633007B439A464B465D435F43EF
:1009D00043465544180C4019824503D980235B02D5
:1009E0009A465744050CEB19059343461D042D0CFC
:1009F00000044019250C2404240C270057436A43A3
:100A000090462A003B0C9A464A4361434144514474
:100A10008344884503D980235B02984642443F04BF
:100A20000B0C3F0C0904C919270098464B46774325
:100A30005C436E435D433B0C9946A4194C444244CD
:100A40000395A64204D980235B029846454403954A
:100A5000029B3F045B441E0083428041230498466E
:100A6000059B3F0C4744984676188E42894147447F
:100A700040423D18A846934649428A46C3449F4295
:100A8000BF4180458041039BDA449846534640422B
:100A90007F420743240C934592418A4589413F197F
:100AA000DC0D049B75021D43681E8541534652426E
:100AB00049420A43BF184744F60D7F0235435A02A4
:100AC0003C431543FB0100D4C1E001216A080D40FD
:100AD0001543E2071543640826496144002956DDA1
:100AE0006B0709D00F222A40042A05D02A1DAA42EA
:100AF000AD416D4264191500E30104D580211E4A01
:100B0000C900144061441D4A914200DD24E7620798
:100B1000ED08640249051543240B4A0DC6E601970A
:100B2000B8E6104A0320944663444A4600930323E0
:100B30001A43914652468AE649460123194389469B
:100B40000026012083E60C22009303230500914632
:100B50009B465EE60423994600230093013300245C
:100B60009B4656E6FF07000001FCFFFFA02300089C
:100B70000DFCFFFFFF030000FFFFFFFEFE0700006C
:100B8000002380240025444A019324038EE601209B
:100B9000401A382800DD86E61F285BDD1F2223006F
:100BA0005242511ACB401900202803D03B4A6244DC
:100BB000944025436A1E95412A000A4307210D00EF
:100BC0000024154011425BD00F210024114004295C
:100BD00053D0111D914292415242A4180A0023029F
:100BE0004BD501220024002560E680231B031C4214
:100BF00009D01E4207D133431C0343461500240B82
:100C0000254A019352E68022120314432403224A08
:100C1000240B01974AE600F09BF803001A001532F6
:100C200020301C2A00DC84E65646083B00229E4009
:100C300089E600F08DF801000200153120321C29F0
:100C400000DC4EE6340008380025844053E6009B63
:100C50009C4641E71249220061442E008D408A40A3
:100C6000C640691E8D4132432A43C4405307B6D063
:100C70000F2111400429ACD1B1E765076402240BB0
:100C8000D2081543002211E68022120314432403E4
:100C9000014A240B0AE6C046FF0700003E0400009C
:100CA0001E04000070B5002816D0C317C5185D409B
:100CB000C40F280000F04CF8114A121A0A2816DC5A
:100CC00003002E0015339E400B23181AC540530510
:100CD0002D032D0B5B0D03E00024002300250026CF
:100CE0001B052B43E40723433000190070BD0B386C
:100CF000854053052D0300262D0B5B0DF0E7C04604
:100D00001E04000010B5041E10D000F021F80F4B97
:100D10001B1A0A2811DC0B222100121AD1401530AF
:100D20000A035B058440120B5B0D01E000230022E7
:100D30001B0513432000190010BD22000B38824010
:100D40005B0512030024120B5B0DF1E71E0400008B
:100D50001C2101231B04984201D3000C10391B0AEB
:100D6000984201D3000A08391B09984201D30009AF
:100D7000043902A2105C40187047C0460403020206
:100D80000101010100000000000000001F231840C5
:100D90001E3B8340014A13607047C04600E100E0FB
:100DA0004369013343617047064B10B50833036054
:100DB000836B0400002B03D03030032201009847DE
:100DC000200010BD8025000870B584680300220053
:100DD0000021002A02D091605268FAE721005A6986
:100DE00050001A691018904209D08E68158875193C
:100DF0008D604968002900D121000232F3E79A6B27
:100E0000002A03D01800DB6B3030984770BD0B1AF6
:100E10009B10002B14DD0278002A03D04278002AB0
:100E200001D1013070478278002A01D10230F9E700
:100E3000C278002A01D10330F4E70430013BE8E72F
:100E40000B1A022B09D0032B03D0012B09D0080069
:100E5000E8E70378002BE5D001300378002BE1D0E0
:100E600001300378002BF2D1DCE70B1A9B10002B2A
:100E700014DD0278002A03D14278002A01D0013023
:100E800070478278002A01D00230F9E7C278002A40
:100E900001D00330F4E70430013BE8E70B1A022BE2
:100EA00009D0032B03D0012B09D00800E8E7037811
:100EB000002BE5D101300378002BE1D1013003781C
:100EC000002BF2D0DCE710B50400002C05D023681D
:100ED00020001B6898476468F7E710BD03691B068C
:100EE00003D5024B4360024B4360704723016745C3
:100EF000AB89EFCD012203699343036102230269A9
:100F00001343036180239B02C91840238902416176
:100F1000026913430361704710B50468002C05D0C3
:100F2000236820001B689847A468F7E710BD10B538
:100F300004000830FFF7F0FF20696169431C23615A
:100F4000FFF7E2FA002902D12000FFF7E5FF10BD0C
:100F500010B50248FFF7EBFF10BDC046C4040020E7
:100F6000037B002B0DD00023426803738368002AA3
:100F70000ED0002B08D0936083685A600023436032
:100F8000836070470B60F8E7044993604A60F5E7B7
:100F90000249002BF6D10B604B60EFE7C404002040
:100FA000002310B54361FFF7DBFF10BD037B002B6F
:100FB0000CD101330373064B5A684260002A00D0FB
:100FC00090601A685860002A00D118607047C046C7
:100FD000C4040020012306C8103293408B6170477F
:100FE0000300026810695A68012393401840431EA9
:100FF0009841C0B2704710B50C1E06D0012341685D
:1010000002688B409361200010BDFFF7E3FFFAE711
:10101000044B10B51868FFF756FF0122024B5A60C7
:1010200010BDC046F403002000000240074B10B57D
:101030001868FFF748FF1023054C6360054B1868DC
:10104000FFF741FF80235B00636010BDFC030020BD
:101050000000024004040020FEE70000054B10B52C
:101060001868FFF730FF0121034A138A8B4313826C
:1010700010BDC046AC040020002C014010B5FFF7A5
:10108000EDFF10BD054B10B51868FFF71CFF0121DF
:10109000034A138A8B43138210BDC046B404002058
:1010A00000040040FEE7FEE7FEE70000044B10B539
:1010B0001868FFF708FF0122024B52421A6210BD66
:1010C000BC0400200038014010B5094C6369DB07FF
:1010D00003D5084B1868FFF7F6FE63699B0703D535
:1010E000054B1868FFF7EFFE0323636110BDC04690
:1010F000000401401C0400202404002010B5094C09
:1011000063695B0703D5084B1868FFF7DCFE63696A
:101110001B0703D5054B1868FFF7D5FE0C23636149
:1011200010BDC046000401405C040020640400209F
:1011300010B5304C6369DB0603D52F4B1868FFF7F9
:10114000C2FE63699B0603D52C4B1868FFF7BBFEF4
:1011500063695B0603D52A4B1868FFF7B4FE636921
:101160001B0603D5274B1868FFF7ADFE6369DB0547
:1011700003D5254B1868FFF7A6FE63699B0503D5C9
:10118000224B1868FFF79FFE63695B0503D5204B70
:101190001868FFF798FE63691B0503D51D4B186897
:1011A000FFF791FE6369DB0403D51B4B1868FFF75B
:1011B0008AFE63699B0403D5184B1868FFF783FE0A
:1011C00063695B0403D5164B1868FFF77CFE6369FF
:1011D0001B0403D5134B1868FFF775FE1022052377
:1011E00001200100994001330A43102BF9D16261BB
:1011F00010BDC046000401406C04002074040020AF
:101200007C040020840400208C040020940400202E
:101210002C040020340400203C040020440400205E
:101220004C040020540400200122436A19680A4338
:101230001A601A68D207FCD5036A1A68D20703D568
:10124000012219680A431A60012299680A439A60C8
:101250001A68D207FCD5042299680A439A6070473D
:101260008022164B520219680A431A601A689203C8
:10127000FCD5F0215A688A435A605A6810490A40DE
:1012800003215A605A688A43110002220A435A60B5
:101290005A680C491140802252030A435A60802246
:1012A000596852020A435A608022196852040A435C
:1012B0001A601A689201FCD57047C04600100240BF
:1012C000FFF8FFFFFFFFC3FF0121514BF0B51A6884
:1012D0000A4206D190244F4AE405146003241960A1
:1012E00054608021C0254C4B89025C69494A2143E6
:1012F000596111680C68AC430C60CC68AC43CC609D
:10130000464CBF3D22682A4206D19026444AF60543
:10131000166006262560566080245D69A4022C4371
:101320003F4A5C6114683F4F26683E402660E5688E
:101330003D4E3D40E560376801253C002C40A44609
:101340003A4C2F4204D16246394F626027603560C3
:10135000802203275D69D20215435D6125689446AA
:101360002E68BE432E60EE68BE43EE600126314F0C
:10137000314D3A68324203D12D4A6E602A603E6098
:1013800067460C225E6937435F612E683768974372
:101390003760F7689743F760284F0B3A3968284E53
:1013A000114204D122493A603160022171608027E4
:1013B0005A69FF02174330225F61366837689743E6
:1013C0003760F7689743F7601E4E2F3A3168114235
:1013D00005D11D4F1649326039600A217960802697
:1013E0005F69F6023E43184F5E613B68174A1E680C
:1013F00016401E60DE681640DE60114B07604360D9
:10140000074B85600361034BC4604361F0BDC04678
:10141000E0020020E402002000100240D40200207C
:10142000D8020020FFCFFFFFC8020020CC0200201E
:1014300000040048BC020020C0020020B0020020CE
:10144000B4020020A4020020A8020020FFFFCFFF6A
:101450000123F7B57A497B4A8C461168194205D1B8
:1014600090216446C9052160636013608022764B39
:10147000920259690C241143596161460425096897
:101480000E68A64335430D60CD68A543CD600125A8
:101490006E490E682E4205D190266D4FF6053E60CE
:1014A0007C600D60802459696A4D0A435A61684A1C
:1014B00064041268116829400C4314600124D16847
:1014C0002940D1606449654A0D68254205D19025BF
:1014D000ED0515600B250C605560802180255C6949
:1014E00089022143596111685D4E0C68ED03344057
:1014F00025430D600125CC683440CC60594C5A49D5
:1015000026682E4205D19026F6050E600A26256033
:101510004E6080255C69AD022C435C610C68534DC4
:1015200026682F002E4080256D0335432560E56831
:101530004F4E3D40E560356801242F00274000975D
:101540008027BF020197254206D19027494DFF050C
:101550002F60009F34606F6080245F69A4023C4369
:10156000032701265C61434C25682C68BC43344347
:101570002C60EC68BC43EC603F4C2568354206D1DA
:1015800090273E4DFF052F60092726606F6080245D
:101590005D69A4022C4380255C61384C384F246877
:1015A000ED0226683E4035432560E5682F40012561
:1015B000E760344C26682E4206D19027324EFF0554
:1015C000376008272560776080245D69A4022C437A
:1015D00080255C612C4C2D4F24686D0226683E40AE
:1015E00035432560E5682F400125E760284C2668D3
:1015F0002E4205D1274E284F256037600F27776090
:10160000802480265D69E4022C43224D5C612C68B5
:10161000F60523689B009B0833432360E3689B0027
:101620009B08E360184B05604360144B01618360C5
:10163000104B4261C360064B83616346C361FEBDCC
:101640009C02002098020020001002408C02002022
:1016500090020020FFFFFFFC800200208402002097
:10166000FFFF3FFF7402002078020020FFFFCFFF42
:10167000680200206C0200205C0200206002002052
:10168000FFFFF3FF5002002054020020FFFFFCFF89
:101690004402002048020020000400483C4970B584
:1016A0000D6801222B003B4C1340154221D1A06153
:1016B0000F20394AA36008322260384AE360226270
:1016C000374A63606262374A23616361E361A363FF
:1016D0001368A262E062002B58D01A005B68002BEE
:1016E000FBD15460012320000B602F4A2F4900F0EA
:1016F00042FE802318212E489B0082690125134356
:101700008361236A8026DA6836068A43DA6080229B
:10171000D96892010A430221DA60DA682A43DA6062
:10172000DA680A43DA601A698A40CA4032431A61A9
:1017300007225E6932435A6142694033154345616D
:101740001020626A9360136883431360136819481A
:1017500018408023DB0003431360136816481840C9
:1017600080235B00034313608023106803431360EE
:101770001368042019432023116011680B43136080
:10178000A36A1856FFF702FB200070BD1460A9E79A
:1017900000020020040200208025000800240140EF
:1017A00008000240F403002000000020A90D0008FA
:1017B00000100240FFF3FFFFFFFCFFFF10B50468BD
:1017C000A14209D15160002900D00A60436802603B
:1017D000002B00D1426010BD002909D1436813607D
:1017E000002B00D05A604260002CF4D10260F2E776
:1017F0000B68516013600A6013685A60EBE70000E1
:1018000070B50468184B002C0DD01D00FC356A68BB
:10181000043C2668043A921B9E18B4421ED01A005B
:101820000124FF32547142688918104A4160914284
:1018300016D849001C008026FC34626876009D188A
:101840000432521862600024B24205D8FF335B793B
:10185000A34201D12C0002C4046070BD6A60E2E7BB
:1018600001214942E6E7C046EC020020FCFFFF3FB1
:10187000012270B504002A482A4D0368134220D182
:1018800029492A4B0E68164205D19026F6051E609E
:1018900004260A605E608022254992024E69324326
:1018A0004A61C0211A688900166831431160D16805
:1018B000204E3140D1600022EB6001232A606A6033
:1018C0000360E26A00230F2A05D1226A1033916A6D
:1018D0000B43936204232000A1682B610830002988
:1018E00004D00A69934201DB4968F8E72A00FFF750
:1018F00065FF2000A1691030FFF782FF0122636AB3
:101900001968914319602169D960616989B2596088
:1019100019680A431A601A68D207FCD5280070BDFE
:10192000DC010020E0010020F4010020F80100208B
:1019300000100240FFFCFFFF012270B504002A489E
:101940002A4D0368134220D129492A4B0E681642BA
:1019500005D19026F6051E6005260A605E6080228D
:10196000254992024E6932434A61C0211A68090131
:10197000166831431160D168204E3140D160002299
:10198000EB6001232A606A600360E26A00230F2A89
:1019900005D1226A2033916A0B439362052320000C
:1019A000A1682B610830002904D00A69934201DB49
:1019B0004968F8E72A00FFF701FF2000A16910300D
:1019C000FFF71EFF0122636A1968914319602169BC
:1019D000D960616989B2596019680A431A601A6846
:1019E000D207FCD5280070BDB8010020BC01002042
:1019F000D0010020D401002000100240FFF3FFFFBF
:101A0000F0B50027C3B014AB9F80B54B80220833DC
:101A10003193B44B92003F933B9340AB1F70B12383
:101A20003C923E9214AA9B181F70B2239B181F7001
:101A300041AB1F7015AB36930123AB48AB4931ACBA
:101A40005B422773278423836760A7602061E76177
:101A50006762216317812600FFF740FAB26AF36AD2
:101A600015005B00D31816A9AB420ED02A78012AC4
:101A700007D86878A218107601202A788854023591
:101A8000F2E72A889A488242F9D13F95B36AAB427D
:101A900005D138970836012F14D00127DEE7F26A06
:101AA00052009B189D4200D1DBE00A2314AA9B1828
:101AB000190016A83897FFF7AAF90A2314AA9B1849
:101AC0008342E7D1389AD300E318D96A9B6A490068
:101AD0005B189D4206D1012139AB995400233893FC
:101AE0003B9B3F930A2514ABED18290016A8FFF77E
:101AF0008EF9B22714AB0190FF18A84200D0B4E0D1
:101B00000222606937A9FEF759FB002375203B705C
:101B100014ABC018C37F002B11D1389B002B0ED003
:101B2000E36A734F5A003B9B19009A180B008A42D4
:101B300000D0A0E013009B1A5A1E9341C377762170
:101B400014ABC918CB7F002B13D1389B012B10D0BD
:101B5000636B3D9A5B00664FD3181000934204D02C
:101B60000232961E3688BE42F7D01B1A581E834199
:101B7000CB77962714ABFF18390039A8FFF775F912
:101B8000874204D0B12314AA9B1803221A70802321
:101B9000226911690B431361019BAB4202D0002300
:101BA00014AA93802000FFF701FA17A8FFF78CFB17
:101BB0001C9B29A808931B9B09931A9B0593199BAF
:101BC0000A93189B1193179B0193FFF741FC309BDD
:101BD00010200B932F9B0C932E9B0D932D9B029308
:101BE0002C9B0F932B9B10932A9B0E93299B069360
:101BF000FFF754FD0400FFF73BFE12902000FFF7B3
:101C00009BFE07902000FFF70FFB0A22002314A978
:101C10005218138037491DAA137323AA21931D91CB
:101C200022931E9327931F93239124932593137339
:101C30002893039304930198FFF7D2F9002821D049
:101C4000049B002B23D1039B002B20D12A4B1DA8E2
:101C50002193FFF7ABF9294B23A82793FFF7A6F9A8
:101C600015E0012239ABDA5514E70122389939AB76
:101C70005A5405234AE702318E1E3688BE4200D1EF
:101C800054E758E70598FFF7ABF90028D8D1229B15
:101C9000219A9A4204D81DA8FFF782F901230493E0
:101CA000289A279B9A4204D323A8FFF779F90123A6
:101CB0000393129B4C229B68642113936B469B18E1
:101CC00018880F4B00094A1094001C19256885429A
:101CD00002D98A1A231D013A002A13DD1100F2E706
:101CE0008C250008002C0008002002400028000875
:101CF000FFFF0000E8230008C0D401003075000099
:101D0000F0230008924A14A99B1A0A229B10521829
:101D10009BB213801388128800219BB2132A03D927
:101D200028319942894149420698FFF764F9079B97
:101D300015AA996813888B4200D28BB21198138030
:101D4000FFF74EF9002800D092E00198FFF742F922
:101D50000598FFF745F9011E05D00698FFF740F9F1
:101D600001214140C9B20B98FFF745F901000C98D9
:101D7000FFF741F90A98FFF733F9011E05D00698DD
:101D8000FFF72EF901214140C9B20F98FFF733F94F
:101D900001001098FFF72FF9079B9868FEF7B2FF34
:101DA00015AB060018880F00FEF77CFF694A6A4BE6
:101DB00004000D00FEF70AFD02000B0030003900A0
:101DC000FEF7D2FB002835D00298FFF703F90598FB
:101DD000FFF706F904000898FFF702F901214140D6
:101DE0002140C9B2002900D003990D98FFF703F9EB
:101DF0000A98FFF7F5F804000998FFF7F1F80121B8
:101E0000414021400E98C9B2FFF7F5F80598FFF759
:101E1000E7F800280CD10198FFF7E2F8041E07D17B
:101E20001DA8FFF7BDF823A8FFF7BAF803940494A0
:101E300030BF00E7494A4A4B20002900FEF7C6FCA4
:101E400002000B0030003900FEF77AFB0028BED0FC
:101E50000598FFF7C5F8049901400298FFF7CBF801
:101E60000298FFF7BDF801000298FFF7C4F8AEE74B
:101E70000198FFF7B5F8011E05D00698FFF7B0F8F6
:101E800001214140C9B20B98FFF7B5F801000C9849
:101E9000FFF7B1F80198FFF7A3F8011E05D00698E7
:101EA000FFF79EF801214140C9B20F98FFF7A3F850
:101EB00001001098FFF79FF8079B9868FEF722FF34
:101EC00015AB060018880F00FEF7ECFE214A224BE6
:101ED00004000D00FEF77AFC02000B003000390010
:101EE000FEF742FB002815D00298FFF773F801981F
:101EF000FFF776F804000898FFF772F801214140D7
:101F00002140C9B2002900D003990D98FFF773F85A
:101F100001986EE7114A124B20002900FEF756FC8B
:101F200002000B0030003900FEF70AFB0028DED06B
:101F30000198FFF755F8049901400298FFF75BF804
:101F40000298FFF74DF801000298FFF754F8CEE72A
:101F5000F0230008CDCCCCCCCCCCDC3F9A9999991D
:101F60009999D93F30B50B1A9B10002B15DD1478C9
:101F70000578A54203D04578A54201D1013030BD96
:101F80008578A54201D10230F9E7C578A54201D193
:101F90000330F4E70430013BE7E70B1A022B0AD0C9
:101FA000032B03D0012B0BD00800E8E7047813784B
:101FB0009C42E4D00130047813789C42DFD0013099
:101FC000047813789C42EFD1D9E70000F0B5050002
:101FD0003D352B780400466985B0D8B2052B36D83C
:101FE000FEF702FA0317377197C5220040321378C3
:101FF000E118F65C097E8E4200D0D3E00133DBB2FB
:10200000012B00D818000123107083433C34237047
:102010001DE02069C368DB0719D403691B0616D5C8
:10202000FEF75CFF022123691A698A431A610122C3
:10203000186902431A61230040331A78013BB05CEF
:1020400018701B78A06B1B0213430380297005B026
:10205000F0BD2369DA689206F9D52022D9680A43CF
:10206000DA60802219690A431A6121002300403195
:102070003F331A780B78E3181A76A36B981CE36940
:10208000A063DA00A218D66A7700966A2200F619D1
:102090003E32B04203D01378DBB22B70D7E7012673
:1020A000E01801309B19C677B34200D90023E361E1
:1020B000DB00E3189B6AA36300230B7001332B70D2
:1020C00004331370C3E72769FB68DB07BFD43B69A0
:1020D0001B06BCD5230026002033019302ABDA1D7A
:1020E00001232236310001981370FFF73BFFB04205
:1020F00002D13E342378CFE7019BC01A60623800DA
:10210000FEF7ECFE636A284AD15CFEF7F3FE042377
:10211000C3E72369DA68920699D52022D968234E4D
:102120000A43DA60802219690A431A61616ACB00A6
:10213000E3189A6ADB6A5B00D3181000934204D05C
:102140000232971E3F88B742F7D01B1A260062184A
:102150002000591E8B4101322236D37731002030C6
:10216000FEF783FE0323864297D1002395E72200E2
:10217000403213780133DBB2012B10D900231370E6
:1021800026002000223631002030FEF76EFE0323A9
:10219000864200D100232B703E34002337E71370B2
:1021A000002BEDD0012378E7EC230008FFFF0000AF
:1021B00070B5012200243D4B02251C605C609C60D0
:1021C0005A61DC601C613A4B3A4E196891431960C0
:1021D0003949596004219C601868014319601968E5
:1021E0003000294319601968FF360A431A608422B7
:1021F00021005200FEF736F81922304B74711D7120
:102200001C602F4B1A711C602E4B52191A711C60E6
:102210002D4B0E3A1A711C602C4B03321A711C6044
:102220002B4B073A1A711C602A4B01321A711C6041
:10223000294B1A711C60294B01321A711C60284B02
:102240001A711C60274B063A1C601A71264B1A71D2
:102250001C60264B01321A711C60254B1A711C60E0
:102260000723244A13711460234A13711460234A0C
:1022700013711460224A13711460224A137114609E
:10228000214A13711460214A13711460204A1460AA
:102290001371204A146013711F4A146013711F4A8E
:1022A000146013711E4A1460137170BDC4040020C1
:1022B00010E000E0EC0200207FBB00009C04002046
:1022C000A4040020BC040020AC040020B4040020BE
:1022D000F4030020FC030020040400200C04002070
:1022E000140400201C040020240400205C040020AE
:1022F000640400206C040020740400207C0400208E
:10230000840400208C040020940400202C0400206D
:10231000340400203C040020440400204C0400202D
:10232000540400200D4885460D480E490E4A0023EE
:1023300002E0D458C4500433C4188C42F9D30B4A79
:102340000B4C002301E013600432A242FBD3FEF7E2
:1023500087FFFDF711FFFFF753FBFEE7001000209A
:102360000000002004000020A42500080400002034
:10237000DC040020FEE7030010B508001900FDF79B
:10238000EBFE10BDF8B5C046F8BC08BC9E467047D1
:0C239000F8B5C046F8BC08BC9E4670477B
:10239C0020000020600900088E0800088E08000844
:1023AC008A0800089408000894080008800B0008AC
:1023BC008A08000894080008800B0008940800089C
:1023CC008A0800081E0B00081E0B00081E0B0008D4
:1023DC00EA0B00080000000000000000A10D00083E
:1023EC000B0A0000FE0D0000E40D0000C90D0000FA
:1023FC00AD0D00008F0D0000770D0000590D000091
:10240C00390D0000190D0000F70C0000DB0C00006A
:10241C00B80C0000950C0000700C00004B0C000078
:10242C002B0C0000040C0000DC0B0000B40B0000B3
:10243C008A0B0000690B00003F0B0000150B00001D
:10244C00E90A0000BD0A0000980A00006C0A0000AE
:10245C003F0A0000110A0000E3090000BE09000059
:10246C009009000061090000320900000209000017
:10247C00DB080000AD0800007E0800004F080000DB
:10248C0020080000FA070000CD070000A00700009C
:10249C00730700004607000022070000F606000044
:1024AC00CB060000A00600007506000053060000D5
:1024BC002A06000002060000DA050000B205000042
:1024CC00920500006C050000460500002205000086
:1024DC00FD040000E0040000BE0400009C040000A9
:1024EC007B0400005A04000040040000210400009A
:1024FC0003040000E5030000C8030000B103000062
:10250C00960300007B0300006103000047030000FA
:10251C00330300001B03000004030000ED02000065
:10252C00D6020000C5020000B00200009B020000B1
:10253C0087020000740200006502000053020000D4
:10254C0042020000300200001F02000013020000D3
:10255C0003020000F4010000E5010000D5010000B9
:10256C00CB010000BD010000B0010000A301000080
:10257C00960100000000000000000000C90D0008DA
:0C258C000000000000000000CD1F00084F
:0825980035010008B121000823
:0425A0000901000825
:0425A4000000000033
:0400000508002325A7
:00000001FF
