:020000040800F2
:1000000000100020C5210008152200081522000854
:1000100000000000000000000000000000000000E0
:100020000000000000000000000000001522000891
:10003000000000000000000015220008990E0008D2
:1000400015220008000000001522000815220008F3
:1000500015220008B50F0008E90F00081D10000860
:1000600000000000FD0E0008190F0008450F0008F1
:1000700015220008490F0008690F00080000000061
:10008000710F00080000000000000000910F000840
:1000900000000000930F0008950F000815220008CB
:1000A000000000001522000800000000990F000861
:1000B0000000000000000000000000000000000040
:1000C00010B5064C2378002B07D1054B002B02D02E
:1000D000044800E000BF0123237010BD6800002029
:1000E0000000000078230008044B10B5002B03D05B
:1000F0000349044800E000BF10BDC04600000000F6
:100100006C0000207823000803B4714649084000C1
:100110004900095A49008E4403BC70470022430835
:100120008B4274D303098B425FD3030A8B4244D3BF
:10013000030B8B4228D3030C8B420DD3FF22090201
:1001400012BA030C8B4202D31212090265D0030BC0
:100150008B4219D300E0090AC30B8B4201D3CB03B6
:10016000C01A5241830B8B4201D38B03C01A5241F8
:10017000430B8B4201D34B03C01A5241030B8B42FA
:1001800001D30B03C01A5241C30A8B4201D3CB02E5
:10019000C01A5241830A8B4201D38B02C01A5241CA
:1001A000430A8B4201D34B02C01A5241030A8B42CD
:1001B00001D30B02C01A5241CDD2C3098B4201D3E5
:1001C000CB01C01A524183098B4201D38B01C01A63
:1001D000524143098B4201D34B01C01A52410309DA
:1001E0008B4201D30B01C01A5241C3088B4201D389
:1001F000CB00C01A524183088B4201D38B00C01A36
:10020000524143088B4201D34B00C01A5241411A5C
:1002100000D20146524110467047FFE701B5002069
:1002200000F006F802BDC0460029F7D076E7704717
:100230007047C0468446101C62468C46191C6346B3
:1002400000E0C0461FB500F0D3F8002801D400211B
:10025000C8421FBD10B500F02BF84042013010BD60
:1002600010B500F0C5F8002801DB002010BD01200A
:1002700010BDC04610B500F0BBF8002801DD00201D
:1002800010BD012010BDC04610B500F04DF800288B
:1002900001DC002010BD012010BDC04610B500F0EB
:1002A00043F8002801DA002010BD012010BDC0462F
:1002B000F0B54F464646D6468446C0B58046194EF0
:1002C00018030F034D00000B5C0082463F0B6D0DC1
:1002D000C90F9146640DDB0F0120B5420AD0B4422C
:1002E00003D0A54201D157450CD01CBC904699467D
:1002F000A246F0BD66463E43F7D1AC42F5D1544626
:100300001443F2D10120C845EFD1994207D0002D06
:10031000EBD163461F433800471EB841E5E7002094
:10032000E3E7C046FF070000F0B54F464646D64615
:100330004D00C0B50E03C90F8A462C491F035C004F
:100340008046360B6D0D91463F0B640DDB0F8D42E1
:100350001ED08C4216D0002D1ED130438446002C76
:1003600001D13A4323D06246002A1AD09A4529D0B7
:10037000514602200139084001381CBC904699467C
:10038000A246F0BD39001143E5D002204042F4E717
:100390003043FAD1AC420FD0002C0FD13A43E7D012
:1003A0000CE00122013B934318000130E5E763466E
:1003B0000020002BE1D0DBE73A43E6D19A45D7D1C4
:1003C000A542D5DCA54205DBBE42D1D808D000202D
:1003D000BE42D2D250460123013898430130CCE7C7
:1003E000C845C5D80020C845F4D3C6E7FF070000BC
:1003F000F0B54F464646D6464D00C0B50E03C90F70
:100400008A462E491F035C008046360B6D0D9146CF
:100410003F0B640DDB0F8D4218D08C4211D0002DA4
:1004200018D130438446002C1ED13A431CD1634678
:100430000020002B30D051460220013908400138FD
:100440002AE039001143EAD0022025E03043FBD1F5
:10045000AC4226D0002C26D13A4324D1514602206A
:1004600001390840013817E06246002A0FD09A454A
:10047000E1D1A54205DBBE42DDD819D00020BE4245
:100480000AD25046012301389843013004E001228A
:10049000013B9343180001301CBC90469946A2468C
:1004A000F0BD3A43D0D19A45C5D1A542C3DCE0E7BF
:1004B000C845C0D80020C845E3D3EDE7FF070000DA
:1004C000F0B55746DE464E464546E0B58346060043
:1004D0000F03480087B092461D003F0B400DCC0F24
:1004E000002800D16FE0DE4B984238D08023FF0017
:1004F0001B041F43730F3B430193DA4B00279946BC
:1005000000239B46F60081442B0369001B0B5246D7
:100510009846490DED0F002900D185E0D04B994256
:1005200000D173E04346DA0080231B041343524694
:10053000CC48520F84461343524600206144D200F7
:1005400089442100694000918C46012149448A4632
:100550000F2F00D990E0C449BF00CF59BF465B467A
:100560003B43019300D06AE102230827002681461D
:100570009B46C9E732005846019B6146009102281C
:1005800000D175E0032800D1FEE1012800D02CE164
:1005900000230027002600253F032A0D3F0BB34808
:1005A00012053A4302401B051343009A5B00D10732
:1005B0005B080B433000190007B03CBC90469946DD
:1005C000A246AB46F0BD5B463B43019300D12FE111
:1005D000002F00D1A5E1380000F050FA03000B3BDA
:1005E0001C2B00DD96E11D22D31A5A460100DA4089
:1005F0005E4608398F4013008E403B4301939C4B6D
:1006000000271B1A994600239B467DE74146534627
:100610000B4393498C46E144002B00D01AE102229F
:100620000220174300228CE7134300D10DE143461B
:10063000002B00D181E1404600F020FA02000B3A85
:100640001C2A00DD72E10100434608398B409846C0
:100650001D239A1A5346D3401A0043461343524669
:100660008A404946081A824989468144002068E741
:100670007B4B002700268EE7140C1204120C11008D
:10068000370C3604350C794328008C462E00604325
:100690006044834656432100300C804658467943D7
:1006A00040440291844506D98846802149028C46FF
:1006B000E044414602913604010C360C00048B469E
:1006C00081191E0C1B041B0C0391190079438C46E5
:1006D000280075436544A8465843050C45447743B4
:1006E000A94203D9802149028C466744290C8C46D3
:1006F00039000004000C2D042D186144AB44059111
:100700005946049101990F043F0C080C39005143DC
:100710004243904602008C46090C8B4662437C4360
:1007200044445C44A04503D98021490288464244A0
:10073000210C884661460904090C8C46390059434E
:10074000434370437E430F0CF6182404BE196444DF
:1007500042448C46B34203D980235B02984640440E
:10076000029B61469846049B370443449B46AB4535
:10077000AD416B420D0405992D0C8C467F196744E1
:10078000FD18A8465D462D19A542A4419346644232
:10079000A446C344DC448F42BF4198459B419345E6
:1007A0009241A445A4415B427F421F43360C524212
:1007B0006442BF192243BF18624638184302D20D63
:1007C000039913436A020A43501E82416146ED0DAC
:1007D0002A434E023243D90100D4B3E00126500827
:1007E00032400243DE0732435B08224C5444002C63
:1007F00062DD510709D00F201040042805D0101DDC
:100800009042924152429B180200D90104D58024A3
:100810001948E400034054441848844200DD27E7A7
:100820005E075B02D2081F0B630516435B0DB2E641
:10083000002399460133042700269B4664E60323E0
:10084000019781460C279B465EE601220120174353
:10085000002276E6032303201F43434671E6C04689
:10086000FF07000001FCFFFF90230008FFFF0F803F
:100870000DFCFFFFFF030000FFFFFFFEFE0700006F
:100880000023802700933F030026434B83E6019B10
:100890003200A446584670E6AC466EE680270199C1
:1008A0003F0339422DD03B422BD11F433F033F0B27
:1008B00000951600384B6EE601252D1B382D00DD06
:1008C00066E61F2D40DC35481C005044160082406F
:1008D0008440EE40501E824134431443EB40620793
:1008E00009D00F222240042A05D02200141D944270
:1008F000804140421B181A023ED5012300270026E2
:1009000049E68027019B3F031F433F033F0B0094B1
:10091000214B40E603005A46283B9A4000260192AC
:100920006DE6584600F0AAF8203057E6030052461C
:10093000283B9A401300002293E6504600F09EF8B0
:1009400020307BE6CA4650E71F201E004042041BB1
:10095000E640202D03D0124C5444A3401A43501EAD
:100960008241324307260027164009D00F2000237A
:10097000104014000428B9D122005E075B021F0B4F
:10098000D2081643002306E680273F031F433F0398
:100990003F0B1600004BFEE5FF0700001E040000A1
:1009A0003E04000070B500282DD0C317C5185D4067
:1009B000C40F280000F062F8154B1B1A5B055B0D95
:1009C0000A2815DD0B38854000222D032D0B002150
:1009D00010002D030A0D2D0B12052A430D4D1B058A
:1009E0002A4013435B00E4075B082343190070BDF2
:1009F00002002900153291400A000B21081AC54057
:100A00002D032D0BE3E70024002300250022DEE761
:100A10001E040000FFFF0F8010B5041E25D000F05B
:100A20002DF8144B1B1A5B055B0D0A2812DD0B38E1
:100A3000844000222403240B0021100024030A0D0B
:100A4000240B120522430C4C1B05224013435B0070
:100A5000590810BD02002100153291400A000B21F7
:100A6000081AC4402403240BE6E7002300240022D4
:100A7000E2E7C0461E040000FFFF0F801C21012397
:100A80001B04984201D3000C10391B0A984201D371
:100A9000000A08391B09984201D30009043902A24F
:100AA000105C40187047C0460403020201010101B6
:100AB00000000000000000001F2318401E3B834080
:100AC000014A13607047C04600E100E0012302685C
:100AD00011784B4013707047012A03D0022A03D0CB
:100AE000002070470160FBE70B680360F8E70B1A12
:100AF0009B10002B14DD0278002A03D04278002AD4
:100B000001D1013070478278002A01D10230F9E723
:100B1000C278002A01D10330F4E70430013BE8E752
:100B20000B1A022B0CD0032B06D0012B02D1037819
:100B3000002BE7D00800E5E70378002BE2D0013076
:100B40000378002BDED00130F1E70B1A9B10002B4D
:100B500014DD0278002A03D14278002A01D0013046
:100B600070478278002A01D00230F9E7C278002A63
:100B700001D00330F4E70430013BE8E70B1A022B05
:100B80000CD0032B06D0012B02D10378002BE7D128
:100B90000800E5E70378002BE2D101300378002B51
:100BA000DED10130F1E710B50400002C05D0236838
:100BB00020001B6898476468F7E710BD03691B06AF
:100BC00003D5024B4360024B4360704723016745E6
:100BD000AB89EFCD012203699343036102230269CC
:100BE0001343036180239B02C9184023890241619A
:100BF0000269134303617047F8B505003D350400F1
:100C000046692878C0B205281AD8FFF77DFA060091
:100C10001A0039007300BC00EE0022004032137845
:100C2000E118F05C097E884200D0FAE00133DBB2C3
:100C3000012B00D90023137001223C349A43227007
:100C4000F8BD2069C368DB07FAD403691B06F7D532
:100C5000FFF7B4FF022123691A698A431A6101224E
:100C6000186902431A61230040331A78013BB05CD3
:100C700018701B78A06B1B02134303802970DFE7F9
:100C80002369DA689206DBD52022D9680A43DA6044
:100C9000802219690A431A612100230040313F3341
:100CA0001A780B78E3181A76A36B981CE369A06393
:100CB000DA00A218D66A7700966A2200F6193E3248
:100CC000B04203D01378DBB22B70B9E70126E018ED
:100CD00001309B19C677B34200D90023E361DB00E2
:100CE000E3189B6AA36300230B7001332B7004335A
:100CF0001370A5E72069C368DB07A1D403691B064D
:100D00009ED52300210020331E002231CA1A9210E2
:100D1000002A20DD1F78002F03D15F78002F0DD02F
:100D20000133994221D09B1B6362FFF747FF636A3F
:100D30003D4AD15CFFF74EFF0423C5E79F78002FA3
:100D400001D00233EDE7DF78002F01D00333E8E76D
:100D50000433013ADCE7CA1A022A0DD0032A07D06D
:100D6000012A0ED11A78002ADBD13E342378AAE773
:100D70001A78002AD5D101331A78002AD1D101334B
:100D8000F0E70B00CDE72369DA68920600D457E755
:100D90002022D968254E0A43DA60802219690A4365
:100DA0001A61616ACB00E3189A6ADB6A5B00D318A8
:100DB0001000934217D00232971E3F88B742F7D0F7
:100DC0001B1A260062182000591E8B410132223660
:100DD000D37720303100FFF7B8FE0323864200D0DE
:100DE00072E7002370E71800EAE722004032137828
:100DF0000133DBB2012B11D9002313702600200030
:100E0000223631002030FFF7A0FE0323864200D1B6
:100E100000232B7000233E34237011E71370002B46
:100E2000ECD0012350E7C046FC230008FFFF000080
:100E300010B50468002C05D0236820001B68984773
:100E4000A468F7E710BD10B583680400002B02D03A
:100E5000032201009847200010BD000010B50400D7
:100E6000034B083303603030FFF7EDFF200010BD67
:100E70009025000810B504000830FFF7D9FF20695D
:100E80006169431C2361FFF7CFF9002902D12000DB
:100E9000FFF7CEFF10BD000010B50248FFF7EAFFD4
:100EA00010BDC04690030020037B002B0CD1013302
:100EB0000373064B5A684260002A00D090601A689B
:100EC0005860002A00D118607047C0469003002087
:100ED00003684268012090401B691840431E9841F6
:100EE000C0B2704710B5426804680123002903D0DE
:100EF00093400800A36110BD1032F9E7044B10B510
:100F00001868FFF750FE0122024B5A6010BDC04620
:100F1000C002002000000240074B10B51868FFF720
:100F200042FE1023054C6360054B1868FFF73BFE3B
:100F300080235B00636010BDC802002000000240F7
:100F4000D0020020FEE70000054B10B51868FFF73F
:100F50002AFE0121034A138A8B43138210BDC04627
:100F600078030020002C014010B5FFF7EDFF10BD05
:100F7000054B10B51868FFF716FE0121034A138AC6
:100F80008B43138210BDC046800300200004004044
:100F9000FEE7FEE7FEE70000044B10B51868FFF718
:100FA00002FE0122024B52421A6210BD8803002049
:100FB0000038014010B5094C6369DB0703D5084BC5
:100FC0001868FFF7F0FD63699B0703D5054B1868A8
:100FD000FFF7E9FD0323636110BDC0460004014033
:100FE000E8020020F002002010B5094C63695B079D
:100FF00003D5084B1868FFF7D6FD63691B0703D5B7
:10100000054B1868FFF7CFFD0C23636110BDC04688
:1010100000040140280300203003002010B52C4CB0
:101020006369DB0603D52B4B1868FFF7BCFD6369CA
:101030009B0603D5284B1868FFF7B5FD63695B066F
:1010400003D5264B1868FFF7AEFD63691B0603D571
:10105000234B1868FFF7A7FD6369DB0503D5214B18
:101060001868FFF7A0FD63699B0503D51E4B186840
:10107000FFF799FD63695B0503D51C4B1868FFF703
:1010800092FD63691B0503D5194B1868FFF78BFDAB
:101090006369DB0403D5174B1868FFF784FD6369A8
:1010A0009B0403D5144B1868FFF77DFD63695B044F
:1010B00003D5124B1868FFF776FD63691B0403D54F
:1010C0000F4B1868FFF76FFD0E4B636110BDC046F4
:1010D00000040140380300204003002048030020A2
:1010E000500300205803002060030020F802002075
:1010F0000003002008030020100300201803002034
:1011000020030020F0FF00000122436A19680A430F
:101110001A601A68D207FCD5036A1A68D20703D589
:10112000012219680A431A60012299680A439A60E9
:101130001A68D207FCD5042299680A439A6070475E
:101140008022164B520219680A431A601A689203E9
:10115000FCD5F0215A688A435A605A6810490A40FF
:1011600003215A605A688A43110002220A435A60D6
:101170005A680C491140802252030A435A60802267
:10118000596852020A435A608022196852040A437D
:101190001A601A689201FCD57047C04600100240E0
:1011A000FFF8FFFFFFFFC3FF836810B5002B01D1DD
:1011B00001F038F8C368984710BD70B58468002204
:1011C0002300002B02D09A605B68FAE72200436993
:1011D000590003695918994209D096681D887519F4
:1011E00095605268002A00D122000233F3E7836B36
:1011F000002B02D03030FFF7D7FF70BD0121414BEB
:10120000F0B51C680C4206D190243F4AE4051460F6
:101210000324196054608021C0253C4B89025C691D
:10122000394A2143596111680C68AC430C60CC68A1
:10123000AC43CC60364CBF3D266836492E4205D1C2
:101240009026F6050E60062625604E6080245D69B6
:10125000A4022C435C610C682F4F26683E40266038
:10126000E5682E4E3D400127E56035682C4C3D4039
:1012700003D12C4A656022603760802203275D69B4
:10128000D20215435D61256894462E68BE432E60E8
:10129000EE68BE43EE600126234F244D3A68324289
:1012A00003D1204A6E602A603E6067460C225E6968
:1012B00037435F612E68376897433760F768974315
:1012C000F76001271A4E32683A4206D1194F154A83
:1012D0003A6002227A6001273760802630225F69F7
:1012E000F6023E43134F5E613B681E6896431E60E4
:1012F000DE689643DE60044B076045608460C16031
:101300000361F0BDAC010020B001002000100240DC
:10131000A0010020A4010020FFCFFFFF94010020C6
:101320009801002000040048880100208C01002062
:101330007C010020800100200123F7B57749784A1D
:101340008C461168194205D190216446C905216077
:10135000636013608022734B920259690C2411431D
:1013600059616146042509680E68A64335430D603E
:10137000CD68A543CD6001256B490E682E4205D18D
:1013800090266A4FF6053E607C600D6080245969A6
:10139000674D0A435A61654A64041268116829401E
:1013A0000C4314600124D1682940D16061490D6863
:1013B000254206D19025604AED0515600B250C608D
:1013C0005560802180255C69890221435A4A596110
:1013D00011685A4E0C68ED03344025430D60012519
:1013E000CC683440CC60564C564926682E4205D114
:1013F0009026F6050E600A2625604E6080275C69FF
:10140000BF023C435C610C684F4D26682A002E40A9
:1014100080256D03354301262560E5681540E560AC
:101420004A4D01972C68344004D19022484FD20590
:1014300014C72E605F69019C01263C4303275C6151
:10144000434C25682C68BC4334432C60EC68BC4397
:10145000EC60404C2268324206D190273E4DFF0599
:101460002F60092726606F6080245D69A4022C43E9
:1014700080255C61384C394F2468ED0226683E4077
:1014800035432560E5682F400125E760344C22682C
:101490002A4206D19027334EFF0537600827256082
:1014A000776080245D69A4022C4380255C612D4C0B
:1014B0002D4F24686D0226683E4035432560E5685F
:1014C0002F400125E760294C22682A4204D10F27CA
:1014D000274E284A256084C6802480265D69E40260
:1014E0002C43234D5C612C68F60523689B009B0808
:1014F00033432360E3689B009B08E360194B05605E
:101500004360154B01618360114BC3600A4B43611B
:10151000064B83616346C361FEBDC0467401002073
:1015200070010020001002406401002068010020CA
:10153000FFFFFFFC580100205C010020FFFF3FFF80
:101540004C01002050010020FFFFCFFF4001002090
:10155000440100203401002038010020FFFFF3FF88
:10156000280100202C010020FFFFFCFF1C010020AF
:10157000200100200004004801233B4970B50A689F
:101580003A4C134023D1A0610F20394AA36008329E
:101590002260384AE3602262374A63606262374AF7
:1015A00023616361E361A3631368A262E062002BBD
:1015B00002D1146004E013005A68002AFBD15C6079
:1015C00001232F4A0B6020002E4900F024FE8023C7
:1015D00018212D489B008269012513438361236AEA
:1015E0008026DA6836068A43DA608022D96892015A
:1015F0000A430221DA60DA682A43DA60DA680A43C9
:10160000DA601A698A40CA4032431A6107225E6969
:1016100032435A6142694033154345611020626A82
:10162000936013688343136013681848184080233D
:10163000DB000343136013681548184080235B00E8
:10164000034313608023106803431360136804206E
:1016500019432023116011680B431360A36A1856C5
:10166000FFF72AFA200070BDCC000020D000002037
:10167000902500080024014008000240C00200201C
:10168000000000205D0E000800100240FFF3FFFF85
:10169000FFFCFFFF10B50468A14209D15160002989
:1016A00000D00A6043680260002B00D1426010BD88
:1016B000002909D143681360002B00D05A604260B2
:1016C000002CF4D10260F2E70B68516013600A60ED
:1016D00013685A60EBE7000070B50468194B002CE2
:1016E0000DD01D00FC356A68043C2668043A921B44
:1016F0009E18B4421ED01A000124FF325471426871
:101700008918114A4160914216D849001D00FC35E4
:101710006A689C18043252186A6080256D00AA42DB
:101720000DD8FF335B79002B09D1002C00D002C407
:10173000046070BD6A60E2E701214942E6E70024E7
:10174000F6E7C046B8010020FCFFFF3F012270B55C
:1017500004002C482C4D0368134223D12B492C4BF9
:101760000E68164205D19026F6051E6004260A6012
:101770005E608022274992024E6932434A61C0214D
:101780001A688900166831431160D168224E3140D1
:10179000D160EB60012300225B422B6102332A609F
:1017A0006A600360E26A00230F2A05D1226A1033BF
:1017B000916A0B43936204232000A1682B610830D7
:1017C000002904D00A69934201DB4968F8E72A003E
:1017D000FFF760FF2000A1691030FFF77DFF0122B5
:1017E000636A1968914319602169D960616989B296
:1017F000596019680A431A601A68D207FCD5280094
:1018000070BDC046A8000020AC000020C000002031
:10181000C400002000100240FFFCFFFF012270B551
:1018200004002C482C4D0368134223D12B492C4B28
:101830000E68164205D19026F6051E6005260A6040
:101840005E608022274992024E6932434A61C0217C
:101850001A680901166831431160D168224E31407F
:10186000D160EB60012300225B422B6102332A60CE
:101870006A600360E26A00230F2A05D1226A2033DE
:10188000916A0B43936205232000A1682B61083005
:10189000002904D00A69934201DB4968F8E72A006D
:1018A000FFF7F8FE2000A1691030FFF715FF0122B5
:1018B000636A1968914319602169D960616989B2C5
:1018C000596019680A431A601A68D207FCD52800C3
:1018D00070BDC04684000020880000209C000020CD
:1018E000A000002000100240FFF3FFFF002370B5AE
:1018F00083608B6804000D00002B05D002229847FE
:10190000EB68E360AB68A360200070BD73B56B4605
:1019100004001A0060CC60C20A0030CA30C005CB97
:1019200005C173BD1FB504006846FFF7DFFF210046
:101930006846FFF7EBFF029BA268A360039B02923D
:10194000E2686846E3600392FFF77DFA200004B086
:1019500010BD10B54430FFF7E5FF10BD10B53430B1
:10196000FFF7E0FF10BD10B52430FFF7DBFF10BD1F
:1019700010B51430FFF7D6FF10BD0000F0B50025FC
:10198000D5B012AB9D80B64B26AC08332693B54B31
:101990008022A362349335AB1D708D239200E262E6
:1019A000626312AA9B181D708E239B181D7036ABA4
:1019B0001D7013AB63610123AB49AC485B426560AA
:1019C000A5602573216323832061E5612584656219
:1019D0001581FFF7F3F830AE736814A85A00336826
:1019E0009A189A420ED01978012907D85F786118A1
:1019F0000F760127197847540233F2E719889C4F74
:101A0000B942F9D1349332689A4205D1E56108367A
:101A1000012D11D00125DFE771684900521893426A
:101A200000D108E10A2712ABFF18E561390014A8BC
:101A3000FFF75DF8B842EAD1E169CB00E318DA6A52
:101A40009B6A52009B18A26B9A4206D101222EABD0
:101A50005A540023E361309B34930A2512ABED18EE
:101A6000290014A8FFF743F88E2712AB0390FF1844
:101A7000A84200D0E4E002222CA9606900F00EFC2C
:101A8000002351203B7012ABC018C37F002B11D133
:101A9000E369002B0ED0E36A754F5A00309B1900A2
:101AA0009A180B008A4200D0D0E013009B1A5A1EED
:101AB0009341C377522112ABC918CB7F002B13D1AE
:101AC000E369012B10D0636B329A5B00684FD31827
:101AD0001000934204D00232961E3688BE42F7D0E0
:101AE0001B1A581E8341CB77722712ABFF1839009F
:101AF0002EA8FFF72AF8B84204D08D2312AA9B180B
:101B000003221A708023226911690B431361039B1E
:101B1000AB4202D0002312AA93802000FFF7C4F941
:101B200019A8FFF76BFB1D9B1EA805931C9B069332
:101B30001B9B04931A9B0793199B1093FFF7FCFBC5
:101B40000022259B4B490893249B37910993239BA3
:101B500049490A93229B38910B93219B39920C930C
:101B6000209B3A920D931F9B3E920E931E9B429296
:101B7000039312ABDA7037AB1A745A743F4B469228
:101B800019684A924E920132114204D10A243C490A
:101B90003C481A6011C180233B4ADB025169384836
:101BA0000B4353610368394C1968002521401960C3
:101BB000DA682240DA600123529353AB1D7012ABF6
:101BC0000633FF33509038A81D705195FFF76CF91C
:101BD00012AB033315932E4B15AC18932D4B2100EC
:101BE0003CA81793FFF79EFE2000FFF72CF910206A
:101BF000FFF7C2FC0600FFF7A9FD11903000FFF7C8
:101C00000DFE07003000FFF77FFA2580119B224D63
:101C10009B6864220F9302AB988E2B000009002A68
:101C20003CDD51108C001C192668864215D9521AC9
:101C3000231D013AF3E72B0001222033E254E6E6AC
:101C40000122E1692EAB5A5405231AE702318E1E98
:101C50003688BE4200D124E728E70A00DFE7C04605
:101C60009C2500080068000800640008002002406D
:101C7000FFFF0000D8230008F8230008100100200F
:101C8000140100200004004800100240FFFFCFFFB5
:101C9000CD0A0008D90A0008002400085B1B9B102D
:101CA00015AA9BB21380138812889BB20021132AB5
:101CB00003D928319942894149420398FFF712F923
:101CC00013AAB96813888B4200D28BB21098138084
:101CD000FFF7FEF812AB0333002872D11870049896
:101CE000FFF7F6F8002805D00398FFF7F1F8012177
:101CF0004840C0B201000898FFF7F4F801000998C5
:101D0000FFF7F0F80798FFF7E3F8002805D00398ED
:101D1000FFF7DEF801214840C0B201000C98FFF740
:101D2000E1F801000D98FFF7DDF80498FFF7D0F80F
:101D30000400B868FEF770FE13AB050018880E00AB
:101D4000FEF730FE484A494BFEF7BAFB34230090B9
:101D50000191012102A8C0180170009A019B28007E
:101D60003100FEF77DFA002803D1342202AB9B1824
:101D70001870342202AB9B181B780B981C40E1B200
:101D8000FFF7B0F80498FFF7A3F805000598FFF7F0
:101D90009FF80124010061402940C9B20A98FFF769
:101DA000A1F80798FFF794F805000698FFF790F858
:101DB000210041402940C9B20E98FFF793F830BF87
:101DC00024E71978002905D00398FFF781F801214D
:101DD0004140C9B20898FFF785F801000998FFF75C
:101DE00081F812ABD978002905D00398FFF770F875
:101DF00001214140C9B20C98FFF774F801000D9819
:101E0000FFF770F8B868FEF707FE13AB04001888F8
:101E10000D00FEF7C7FD144A144BFEF751FB0200FC
:101E20000B00200029000126FEF71AFA002800D135
:101E3000061C12ABD9780B983140DD1CFFF752F825
:101E400005982E78FFF744F80124010061403140E5
:101E50000A98FFF747F806982D78FFF739F8210020
:101E600041402940A8E7C0469A9999999999D93F44
:101E7000002370B5060086B004938B6804000D0043
:101E80005436002B07D0022202A89847EB6805932E
:101E9000AB6801930493310002A8FFF737FD049B60
:101EA000E26DE365059B0492226E02A8236605920B
:101EB000FEF7C9FF06B070BD1FB500280BD06846FD
:101EC000FFF714FD029B002B02D06846FFF76CF968
:101ED0006846FEF7B8FF05B000BD07B583680191FD
:101EE000002B01D100F09EF9C36801A9984707BDF6
:101EF000F0B5040085B0406EFEF7EAFF002802D17D
:101F0000A36E002B34D0606EFEF7E2FF051E31D1C8
:101F10002600637C70360700002B00D13778210043
:101F200068462431FFF7E2FC380027006946FFF7D6
:101F3000C3FF6846FEF787FF637C7137002B05D12E
:101F40003578002D02D001253B785D4021006846A0
:101F50003431FFF7CBFC69462800FFF7ADFF684638
:101F6000FEF771FF00230122A366E26633703B7027
:101F700005B0F0BDA36E5D1CA566092D24D9220015
:101F800070321378002B10D1210001331370657C5F
:101F900014315D406846FFF7A9FC28006946FFF749
:101FA0008BFF6846FEF74FFFE2E7234B9D420BD9BC
:101FB000220071321378002B06D1210001331370F7
:101FC000657C44315D40E5E7E36D002BD0D0FA2617
:101FD000B600B542CCD9FA23DB009D420BD8C8210C
:101FE0002800FEF721F90029C2D120000121543038
:101FF000FFF773FFBCE7114B64219D42F0D9FA2330
:1020000032211B019D42EBD919212800FEF70CF962
:102010000B4B9D42E7D90029AAD12000E16E543034
:10202000FFF75BFF3100A06EFEF7FEF800299FD19D
:10203000E36E0133E3669BE7E7030000B80B0000A3
:102040008813000008B4024B9C46043808BC604763
:10205000F11E000870B5012200243C4B02251C60D3
:102060005C609C605A61DC601C61394B196891436B
:1020700019603849596004219C601868014319604F
:10208000196835482943196019680A431A6084227F
:102090002100520000F00BF91922304B1D711C6019
:1020A0002F4B1C601A712F4B52191C601A712E4B4A
:1020B0000E3A1C601A712D4B03321C601A712C4BA6
:1020C000073A1C601A712B4B01321C601A712A4BA3
:1020D0001C601A71294B01321C601A71284B1C605C
:1020E0001A71284B063A1C601A71274B1A711C6032
:1020F000264B01321A711C60254B1A711C60072394
:10210000244A14601371244A14601371234A146022
:102110001371234A14601371224A14601371224A06
:1021200014601371214A14601371214A14601371F1
:10213000204A14601371204A146013711F4A1460FE
:1021400013711F4A1460137170BDC04690030020C4
:1021500010E000E07FBB0000B80100206803002011
:1021600070030020880300207803002080030020F3
:10217000C0020020C8020020D0020020D8020020A7
:10218000E0020020E8020020F002002028030020E6
:1021900030030020380300204003002048030020C3
:1021A000500300205803002060030020F8020020A4
:1021B0000003002008030020100300201803002063
:1021C000200300200D4885460D480E490E4A002385
:1021D00002E0D458C4500433C4188C42F9D30B4ADB
:1021E0000B4C002301E013600432A242FBD3FEF744
:1021F000A7FF00F02FF8FFF7C1FBFEE7001000205B
:102200000000002068000020B425000868000020BD
:10221000AC030020FEE70B0010B50100180000F031
:102220000BF810BD10B500F000F810B5062000F056
:1022300071F8012000F09EF810B504000448130066
:10224000002804D00A000220210000E000BF10BDD9
:102250000000000070B500260C4D0D4C641BA4104E
:10226000A64209D1002600F087F80A4D0A4C641BEB
:10227000A410A64205D170BDB300EB5898470136B3
:10228000EEE7B300EB5898470136F2E7A8250008BF
:10229000A8250008A8250008B0250008002310B5CF
:1022A0009A4200D110BDCC5CC4540133F8E703005E
:1022B0001218934200D1704719700133F9E770B5D5
:1022C00004000D001F2904D9162303600120404299
:1022D00070BD436C002B04D08A009B181A68002A3A
:1022E00008D1200000F032F82A000100200000F0A0
:1022F0001BF8EDE70020012AEAD0511C03D1162378
:1023000001302360E4E7002428001C60904720008F
:10231000DEE7000010B5034B01001868FFF7CFFFA0
:1023200010BDC04604000020002370B5064C050017
:1023300008001100236000F015F8431C03D1236846
:10234000002B00D02B6070BDA803002010B500F05A
:1023500001F810BD58220120014B40421A6070471D
:10236000A803002058220120014B40421A60704708
:10237000A8030020FEE7C046F8B5C046F8BC08BC7C
:102380009E467047F8B5C046F8BC08BC9E467047EC
:10239000780600087A0500087A0500089808000801
:1023A00074050008740500088008000898080008F3
:1023B00074050008800800087405000898080008E3
:1023C0008E0800088E0800088E0800089C08000887
:1023D00000000000000000007119000867190008E3
:1023E0005D19000853190008711E0008F11E00084D
:1023F000FCFFFFFF00000000452000081A19000044
:10240000FE0D0000E40D0000C90D0000AD0D000040
:102410008F0D0000770D0000590D0000390D0000F0
:10242000190D0000F70C0000DB0C0000B80C0000D8
:10243000950C0000700C00004B0C00002B0C0000F1
:10244000040C0000DC0B0000B40B00008A0B000041
:10245000690B00003F0B0000150B0000E90A0000AB
:10246000BD0A0000980A00006C0A00003F0A000044
:10247000110A0000E3090000BE09000090090000F5
:10248000610900003209000002090000DB080000B9
:10249000AD0800007E0800004F0800002008000082
:1024A000FA070000CD070000A00700007307000036
:1024B0004607000022070000F6060000CB060000D9
:1024C000A006000075060000530600002A06000062
:1024D00002060000DA050000B205000092050000C7
:1024E0006C0500004605000022050000FD04000008
:1024F000E0040000BE0400009C0400007B04000017
:102500005A040000400400002104000003040000FD
:10251000E5030000C8030000B103000096030000BB
:102520007B03000061030000470300003303000049
:102530001B03000004030000ED020000D6020000AF
:10254000C5020000B00200009B02000087020000EC
:102550007402000065020000530200004202000005
:10256000300200001F0200001302000003020000FE
:10257000F4010000E5010000D5010000CB010000DE
:10258000BD010000B0010000A301000096010000A1
:102590000000000000000000BB1100080000000067
:0825A00000000000F90B000827
:0825A800E900000855200008BD
:0425B000C10000085E
:1025B40000000000080000200000000000000000EF
:1025C4000000000000000000000000000000000007
:1025D40000000000000000000000000000000000F7
:1025E40000000000000000000000000000000000E7
:1025F40000000000000000000000000000000000D7
:1026040000000000000000000000000000000000C6
:082614000000000000000000BE
:04000005080021C509
:00000001FF
