:020000040800F2
:1000000000100020011E0008511E0008511E0008AB
:1000100000000000000000000000000000000000E0
:10002000000000000000000000000000511E000859
:100030000000000000000000511E0008D10E000862
:10004000511E000800000000511E0008511E00084B
:10005000511E0008ED0F000821100008551000087F
:1000600000000000350F0008510F00087D0F000848
:10007000511E0008810F0008A10F000800000000B9
:10008000A90F00080000000000000000C90F0008D0
:1000900000000000CB0F0008CD0F0008511E000823
:1000A00000000000511E000800000000D10F0008F1
:1000B0000000000000000000000000000000000040
:1000C00010B5064C2378002B07D1054B002B02D02E
:1000D000044800E000BF0123237010BD040000208D
:1000E00000000000E81E0008044B10B5002B03D0F0
:1000F0000349044800E000BF10BDC04600000000F6
:1001000008000020E81E000802B4714649084900B2
:10011000095C49008E4402BC7047C0460022430877
:100120008B4274D303098B425FD3030A8B4244D3BF
:10013000030B8B4228D3030C8B420DD3FF22090201
:1001400012BA030C8B4202D31212090265D0030BC0
:100150008B4219D300E0090AC30B8B4201D3CB03B6
:10016000C01A5241830B8B4201D38B03C01A5241F8
:10017000430B8B4201D34B03C01A5241030B8B42FA
:1001800001D30B03C01A5241C30A8B4201D3CB02E5
:10019000C01A5241830A8B4201D38B02C01A5241CA
:1001A000430A8B4201D34B02C01A5241030A8B42CD
:1001B00001D30B02C01A5241CDD2C3098B4201D3E5
:1001C000CB01C01A524183098B4201D38B01C01A63
:1001D000524143098B4201D34B01C01A52410309DA
:1001E0008B4201D30B01C01A5241C3088B4201D389
:1001F000CB00C01A524183088B4201D38B00C01A36
:10020000524143088B4201D34B00C01A5241411A5C
:1002100000D20146524110467047FFE701B5002069
:1002200000F006F802BDC0460029F7D076E7704717
:100230007047C0468446101C62468C46191C6346B3
:1002400000E0C0461FB500F0D7F8002801D4002117
:10025000C8421FBD10B500F02BF84042013010BD60
:1002600010B500F0C9F8002801DB002010BD012006
:1002700010BDC04610B500F0BFF8002801DD002019
:1002800010BD012010BDC04610B500F051F8002887
:1002900001DC002010BD012010BDC04610B500F0EB
:1002A00047F8002801DA002010BD012010BDC0462B
:1002B000F0B54E464546DE4657461C03E0B5240BD6
:1002C0001A4E0F034D00A1465C00DB0F84463F0B26
:1002D0006D0DC90F9046640D9B46B5421AD0B442CD
:1002E00010D00126A5420ED14F450CD10126C445A0
:1002F00009D1594518D0002D05D138430600701E8C
:10030000864100E0012630003CBC90469946A2465A
:10031000AB46F0BD3B0001260343F4D1AC42F2D121
:100320004B461343EFD1E1E70026ECE7FF0700005F
:10033000F0B54F464646D6464D00C0B50E03C90F30
:100340008A462C491F035C008046360B6D0D914692
:100350003F0B640DDB0F8D421ED08C4216D0002D5A
:100360001ED130438446002C01D13A4323D062464B
:10037000002A1AD09A4529D0514602200139084056
:1003800001381CBC90469946A246F0BD3900114385
:10039000E5D002204042F4E73043FAD1AC420FD01E
:1003A000002C0FD13A43E7D00CE00122013B9343EC
:1003B00018000130E5E763460020002BE1D0DBE7C1
:1003C0003A43E6D19A45D7D1A542D5DCA54205DB13
:1003D000BE42D1D808D00020BE42D2D2504601231E
:1003E000013898430130CCE7C845C5D80020C8453E
:1003F000C7D2F3E7FF070000F0B54F464646D646A2
:100400004D00C0B50E03C90F8A462C491F035C007E
:100410008046360B6D0D91463F0B640DDB0F8D4210
:100420001ED08C420CD0002D1ED130438446002CAF
:100430000BD13A4309D163460020002B2FD009E0AD
:1004400039001143EFD0022029E06246002A21D072
:100450009A4511D0514602200139084001381EE06A
:100460003043F0D1AC421FD0002C01D13A43F1D03F
:100470009A45EFD1A542EDDCA54205DBBE42E9D8A5
:1004800016D00020BE420AD25046012301389843BC
:10049000013004E00122013B9343180001301CBCF1
:1004A00090469946A246F0BD3A43E1D00220F6E7D5
:1004B000C845CFD80020C845F1D2E5E7FF070000C6
:1004C000F0B557464E464546DE46E0B50C0381463C
:1004D0001F000500230B480087B092469846400D48
:1004E000CE0F002800D17CE07D4B984200D196E0F1
:1004F00043466C0FDB001C4380237A4A1B041C43D9
:100500009446030063440193002398469B46ED0004
:100510003B031B0B99467A00FB0F5146520D029389
:1005200000D187E06E4B9A4222D06E484B0F844632
:10053000019862448446494694446246C9000B438C
:1005400080210192002209040B4351469446C900C0
:1005500032000298424001980130039040460F2833
:1005600000D9C7E08000804647465F48C0598746AB
:100570004A4653465A4813438446019A62440192BC
:10058000002B00D08CE0022241461143884694465D
:100590000021DDE7029A1C000D00E3465B46022BBA
:1005A0006BD0032B00D1FFE1012B00D065E10026C9
:1005B0000024002500212403230B0C0D24051C43DB
:1005C0004A4B3605234033435B00D2075B08134395
:1005D0002800190007B03CBC90469946A246AB469D
:1005E000F0BD1C002C4353D04346002B00D181E1C9
:1005F000404600F05BFA02000B3A1D2301009B1AF3
:1006000044464A464D4608398C40DA408D401443F2
:10061000374B1B1A0193002398469B4678E74C46BC
:1006200043461C432DD108239846063B00250190E4
:100630009B466DE74B4601220B43A5D04B46002B52
:1006400000D147E1484600F031FA02000B3A1D277D
:10065000BA1A57460100D740524608394B468A40DD
:100660008B4011003B43019A214F101ABC460200F7
:1006700062440192002294466AE7194E0024002544
:1006800098E70C2344469846093B01909B463FE778
:100690000423984600230193013300259B4637E746
:1006A000032342461A43904603224B4694464FE7A3
:1006B000320073E78024002224030025084E79E7E6
:1006C00080221203144200D1FCE0134200D0F9E072
:1006D0001A431403240B029A0D00014E6AE7C04628
:1006E000FF07000001FCFFFF001F0008FFFF0F8055
:1006F0000DFCFFFF2F0C2D042D0C28000E0C0904FF
:10070000090C48438046080078438146300078430E
:1007100002902800704384464046000C8246CC4438
:10072000D444E14507D902988246802040028146A0
:10073000CA44504602906046000C8346604600045E
:10074000844640460004000C8046604640440490C5
:10075000180C804628001B041B0C584384461800C4
:10076000784381464046784382464046454360464A
:100770004D44070C7D19A94503D9802040028146CC
:10078000CA4460462F0CBA4407043F0C2D04ED19EF
:10079000AB445846270C2404240C05902000484301
:1007A0007943894639008446000C83467143664389
:1007B0004E445E44B14503D98020400281464944FD
:1007C000300C814660460004000C844620005843EB
:1007D0004944814640467843360466448446404650
:1007E000444348467B43070CE4183C19A34203D911
:1007F00080235B029846C4440598029B8046484685
:100800000004000C43448146AB42AD419B19B34206
:10081000B64127044F446D425744781980467642CA
:100820008B46B146C344D9445745BF41A845AD4165
:100830008B458941B145B6416D427F422F43240C1F
:100840004942764231433C19641849466444C90D13
:1008500064020C4304995D020D43691E8D41DB0D5A
:100860001D434B465B021D43E3017AD501216B0812
:100870000D401D43E3071D4364084F4B0399CE18F9
:10088000002E46DD6B0709D00F212940042905D031
:100890002B1DAB42AD416D4264191D00E30105D52E
:1008A000464B03991C408023DB00CE1844498E42FE
:1008B00000DDE2E66307ED08640276051D43240BC4
:1008C000760D77E680231B031C4324033200240BA0
:1008D0003C4E6FE6504600F0E9F803001A0015326E
:1008E00020301C2A00DCB2E65246083B9A40002128
:1008F0001300B8E6484600F0D9F803001A00153294
:1009000020301C2A00DC78E64C46083B9C40002541
:100910007EE60121891B382900DD48E61F2923DCFA
:10092000294B2E009C46039BCE40634418002300B5
:1009300085408340681E854133432B43CC40590793
:1009400009D00F211940042905D0191D99429B4156
:100950005B42E4180B0021021FD50126002400256C
:1009600028E6019B039388E71F235B429E1B23001D
:10097000F340202905D015498C46039961448C40E9
:100980002543691E8D412B43072500241D4007D0B8
:100990000F21002419400429D7D165076402240BD4
:1009A000DB081D43002605E680231B031C432403AC
:1009B000240B044EFEE5C046FF030000FFFFFFFED0
:1009C000FE070000FF0700001E0400003E040000B8
:1009D00070B5002818D0C317C5185D40C40F280093
:1009E00000F064F8164B1B1A5B055E0D0A2820DC2C
:1009F00003002A0015339A4013000B22101A2A0014
:100A0000C2401203120B03E0002400260022002340
:100A1000002112031800130B0A0D0A4D12051A4388
:100A20002A40330513435B00E4075B0823431900A6
:100A300070BD2A000B3882401203120B0023E7E737
:100A40001E040000FFFF0F8010B5041E12D000F03E
:100A50002DF8144B1B1A5B055B0D0A281BDC0200EA
:100A60002100153291400A000B21081AC4402403CA
:100A7000240B02E0002300240022002110002403A4
:100A80000A0D240B12052243074C1B052240134379
:100A90005B00590810BD0B3884402403240B00224E
:100AA000EBE7C0461E040000FFFF0F801C2101235E
:100AB0001B04984201D3000C10391B0A984201D341
:100AC000000A08391B09984201D30009043902A21F
:100AD000105C40187047C046040302020101010186
:100AE00000000000000000001F2318401E3B834050
:100AF000014A13607047C04600E100E010B5064BA4
:100B0000040008330360836B002B03D030300322D2
:100B100001009847200010BDD420000870B58468FB
:100B2000020023000021002B02D099605B68FAE7E5
:100B300021005369580013691818984209D08E682B
:100B40001D8875198D604968002900D12100023384
:100B5000F3E7936B002B03D01000D36B3030984732
:100B600070BD0B1A9B10002B14DD0278002A03D0F5
:100B70004278002A01D1013070478278002A01D1E1
:100B80000230F9E7C278002A01D10330F4E70430DB
:100B9000013BE8E70B1A022B09D0032B03D0012BF2
:100BA00009D00800E8E70378002BE5D0013003788E
:100BB000002BE1D001300378002BF2D1DCE70B1AD7
:100BC0009B10002B14DD0278002A03D14278002A02
:100BD00001D0013070478278002A01D00230F9E755
:100BE000C278002A01D00330F4E70430013BE8E783
:100BF0000B1A022B09D0032B03D0012B09D00800BC
:100C0000E8E70378002BE5D101300378002BE1D130
:100C100001300378002BF2D0DCE710B50400002C83
:100C200005D0236820001B6898476468F7E710BD6B
:100C300003691B0603D5024B4360024B43607047B8
:100C400023016745AB89EFCD01220369934303611B
:100C5000022302691343036180239B02C9184023C6
:100C6000890241610269134303617047F8B50500C9
:100C70003D35040046692878C0B2052817D8FFF72B
:100C800043FA03173670B8E8220040321378E118AF
:100C9000F05C097E884200D0F7E00133DBB2012B23
:100CA00000D90023137001223C349A432270F8BD0E
:100CB0002069C368DB07FAD403691B06F7D5FFF781
:100CC000B7FF022123691A698A431A610122186950
:100CD00002431A61230040331A78013BB05C18705C
:100CE0001B78A06B1B02134303802970DFE7236985
:100CF000DA689206DBD52022D9680A43DA608022BE
:100D000019690A431A612100230040313F331A78E0
:100D10000B78E3181A76A36B981CE369A063DA00DA
:100D2000A218D66A7700966A2200F6193E32B042BF
:100D300003D01378DBB22B70B9E70126E01801303D
:100D40009B19C677B34200D90023E361DB00E318A7
:100D50009B6AA36300230B7001332B700433137061
:100D6000A5E72069C368DB07A1D403691B069ED5EC
:100D7000260021002036330022318A1B9210002ADF
:100D800020DD1F78002F03D15F78002F0DD00133B5
:100D900099422BD09B1B6362FFF74AFF636A3C4A70
:100DA000D15CFFF751FF0423C5E79F78002F01D0E6
:100DB0000233EDE7DF78002F01D00333E8E7043397
:100DC000013ADCE7CA1A022A09D0032A03D0012A11
:100DD00009D00B00DCE71A78002AD9D101331A7840
:100DE000002AD5D101331A78002AD1D13E34237894
:100DF000A0E72369DA68920600D458E72022D96870
:100E0000244E0A43DA60802219690A431A61616A32
:100E1000CB00E3189A6ADB6A5B00D3181000934298
:100E200004D00232971E3F88B742F7D01B1A260023
:100E300062182000591E8B4101322236D3772030B0
:100E40003100FFF7BCFE0323864200D073E7002386
:100E500071E72200403213780133DBB2012B11D944
:100E60000023137026002000223631002030FFF7C7
:100E7000A6FE0323864200D100232B7000233E34BC
:100E8000237014E71370002BECD0012353E7C04606
:100E9000401F0008FFFF000010B50468002C05D0BB
:100EA000236820001B689847A468F7E710BD10B5B9
:100EB00004000830FFF7F0FF20696169431C2361DB
:100EC000FFF7B2F9002902D12000FFF7E5FF10BDBE
:100ED00010B50248FFF7EBFF10BDC0462403002009
:100EE000037B002B0CD101330373064B5A6842601D
:100EF000002A00D090601A685860002A00D118605B
:100F00007047C046240300200368426801209040D7
:100F10001B690340581E8341D8B2704710B5426820
:100F200004680123002903D093400800A36110BD89
:100F30001032F9E7044B10B51868FFF76EFE012276
:100F4000024B5A6010BDC0465C0200200000024007
:100F5000074B10B51868FFF760FE1023054C63605F
:100F6000054B1868FFF759FE80235B00636010BDD6
:100F700064020020000002406C020020FEE7000036
:100F8000054B10B51868FFF748FE0121034A138A84
:100F90008B43138210BDC0460C030020002C01407F
:100FA00010B5FFF7EDFF10BD054B10B51868FFF742
:100FB00034FE0121034A138A8B43138210BDC046BD
:100FC0001403002000040040FEE7FEE7FEE70000F7
:100FD000044B10B51868FFF720FE0122024B524265
:100FE0001A6210BD1C0300200038014010B5094CE6
:100FF0006369DB0703D5084B1868FFF70EFE6369CA
:101000009B0703D5054B1868FFF707FE03236361B1
:1010100010BDC04600040140840200208C02002064
:1010200010B5094C63695B0703D5084B1868FFF7D7
:10103000F4FD63691B0703D5054B1868FFF7EDFD49
:101040000C23636110BDC04600040140C4020020AF
:10105000CC02002010B5304C6369DB0603D52F4B62
:101060001868FFF7DAFD63699B0603D52C4B1868F7
:10107000FFF7D3FD63695B0603D52A4B1868FFF7BA
:10108000CCFD63691B0603D5274B1868FFF7C5FD28
:101090006369DB0503D5254B1868FFF7BEFD63695F
:1010A0009B0503D5224B1868FFF7B7FD63695B0505
:1010B00003D5204B1868FFF7B0FD63691B0503D506
:1010C0001D4B1868FFF7A9FD6369DB0403D51B4BB3
:1010D0001868FFF7A2FD63699B0403D5184B1868D5
:1010E000FFF79BFD63695B0403D5164B1868FFF798
:1010F00094FD63691B0403D5134B1868FFF78DFD3E
:101100001022052301200100994001330A43102BCE
:10111000F9D1626110BDC04600040140D402002034
:10112000DC020020E4020020EC020020F402002097
:10113000FC020020940200209C020020A402002057
:10114000AC020020B4020020BC0200200122436A4D
:1011500019680A431A601A68D207FCD5036A1A682C
:10116000D20703D5012219680A431A60012299683F
:101170000A439A601A68D207FCD5042299680A4388
:101180009A6070478022164B520219680A431A600F
:101190001A689203FCD5F0215A688A435A605A684B
:1011A00010490A4003215A605A688A4311000222FA
:1011B0000A435A605A680C491140802252030A437C
:1011C0005A608022596852020A435A608022196884
:1011D00052040A431A601A689201FCD57047C0464F
:1011E00000100240FFF8FFFFFFFFC3FF01214F4B3C
:1011F000F0B51A680A4206D190244D4AE4051460FD
:101200000324196054608021C0254A4B89025C691F
:10121000474A2143596111680C68AC430C60CC68A3
:10122000AC43CC60444CBF3D22682A4206D1902694
:10123000424AF605166006262560566080245D69E0
:10124000A4022C433D4A5C6114683D4F26683E4031
:101250002660E5683B4E3D400127E56035683A4C25
:101260003D4003D1394A6560226037608022032700
:101270005D69D20215435D61256894462E68BE43C0
:101280002E60EE68BE43EE600126314F314D3A6864
:10129000324203D12D4A6E602A603E6067460C22BE
:1012A0005E6937435F612E68376897433760F76838
:1012B0009743F760284F0B3A3968284E114204D102
:1012C00022493A6031600221716080275A69FF0229
:1012D000174330225F613668376897433760F76895
:1012E0009743F7601E4E2F3A3168114205D11D4FCA
:1012F0001649326039600A21796080265F69F602FA
:101300003E43184F5E613B68174A1E6816401E60D8
:10131000DE681640DE60114B07604360074B856056
:101320000361034BC4604361F0BDC0464801002027
:101330004C010020001002403C0100204001002030
:10134000FFCFFFFF300100203401002000040048DF
:101350002401002028010020180100201C01002089
:101360000C01002010010020FFFFCFFF0123F7B583
:101370007749784A8C461168194205D19021644614
:10138000C9052160636013608022734B9202596922
:101390000C24114359616146042509680E68A6436F
:1013A00035430D60CD68A543CD6001256B490E68BE
:1013B0002E4205D190266A4FF6053E607C600D6096
:1013C00080245969674D0A435A61654A640412686A
:1013D000116829400C4314600124D1682940D16070
:1013E00061490D68254206D19025604AED051560DA
:1013F0000B250C605560802180255C6989022143A2
:101400005A4A596111685A4E0C68ED03344025431D
:101410000D600125CC683440CC60564C5649266896
:101420002E4205D19026F6050E600A2625604E60F4
:1014300080275C69BF023C435C610C684F4D2668A5
:101440002A002E4080256D03354301262560E5687E
:101450001540E5604A4D01972C68344004D1902234
:10146000484FD20514C72E605F69019C01263C439A
:1014700003275C61434C25682C68BC4334432C60D3
:10148000EC68BC43EC60404C2268324206D19027A5
:101490003E4DFF052F60092726606F6080245D693F
:1014A000A4022C4380255C61384C394F2468ED023E
:1014B00026683E4035432560E5682F400125E760FA
:1014C000344C22682A4206D19027334EFF053760FC
:1014D00008272560776080245D69A4022C4380255D
:1014E0005C612D4C2D4F24686D0226683E403543CB
:1014F0002560E5682F400125E760294C22682A42D3
:1015000004D10F27274E284A256084C680248026D0
:101510005D69E4022C43234D5C612C68F605236869
:101520009B009B0833432360E3689B009B08E360B8
:10153000194B05604360154B01618360114BC3601B
:101540000A4B4361064B83616346C361FEBDC046DF
:10155000040100200001002000100240F4000020DF
:10156000F8000020FFFFFFFCE8000020EC00002056
:10157000FFFF3FFFDC000020E0000020FFFFCFFF67
:10158000D0000020D4000020C4000020C8000020AB
:10159000FFFFF3FFB8000020BC000020FFFFFCFFAE
:1015A000AC000020B00000200004004801233B49AB
:1015B00070B50A683A4C134023D1A0610F20394A14
:1015C000A36008322260384AE3602262374A6360CF
:1015D0006262374A23616361E361A3631368A262B5
:1015E000E062002B02D1146004E013005A68002A64
:1015F000FBD15C6001232F4A0B6020002E4900F0D4
:1016000028FC802318212D489B0082690125134363
:101610008361236A8026DA6836068A43DA6080228C
:10162000D96892010A430221DA60DA682A43DA6053
:10163000DA680A43DA601A698A40CA4032431A619A
:1016400007225E6932435A6142694033154345615E
:101650001020626A9360136883431360136818480C
:1016600018408023DB0003431360136815481840BB
:1016700080235B00034313608023106803431360DF
:101680001368042019432023116011680B43136071
:10169000A36A1856FFF728FA200070BD68000020E2
:1016A0006C000020D4200008002401400800024003
:1016B0005C02002000000020FD0A0008001002402B
:1016C000FFF3FFFFFFFCFFFF10B50468A14209D143
:1016D0005160002900D00A6043680260002B00D1ED
:1016E000426010BD002909D143681360002B00D06F
:1016F0005A604260002CF4D10260F2E70B6851603E
:1017000013600A6013685A60EBE7000070B5046864
:10171000194A002C0DD01500FC356B68043C266876
:10172000043B9B1BD618B44221D013000124FF3385
:101730005C714368C918114B4160994219D849003E
:1017400013008026FC335D6876002C1D64185C60F5
:101750000023B44209D81300FF335C7900239C4274
:1017600003D15319002B00D002C3036070BD6B601E
:10177000DFE701214942E3E754010020FCFFFF3F7E
:10178000012270B504002C482C4D0368134223D16C
:101790002B492C4B0E68164205D19026F6051E608B
:1017A00004260A605E608022274992024E69324315
:1017B0004A61C0211A688900166831431160D168F6
:1017C000224E3140D160EB60012300225B422B614D
:1017D00002332A606A600360E26A00230F2A05D19F
:1017E000226A1033916A0B43936204232000A1689C
:1017F0002B610830002904D00A69934201DB496853
:10180000F8E72A00FFF760FF2000A1691030FFF71A
:101810007DFF0122636A1968914319602169D960CB
:10182000616989B2596019680A431A601A68D20757
:10183000FCD5280070BDC0464400002048000020B0
:101840005C0000206000002000100240FFFCFFFF51
:10185000012270B504002C482C4D0368134223D19B
:101860002B492C4B0E68164205D19026F6051E60BA
:1018700005260A605E608022274992024E69324343
:101880004A61C0211A680901166831431160D168A4
:10189000224E3140D160EB60012300225B422B617C
:1018A00002332A606A600360E26A00230F2A05D1CE
:1018B000226A2033916A0B43936205232000A168BA
:1018C0002B610830002904D00A69934201DB496882
:1018D000F8E72A00FFF7F8FE2000A1691030FFF7B3
:1018E00015FF0122636A1968914319602169D96063
:1018F000616989B2596019680A431A601A68D20787
:10190000FCD5280070BDC046200000202400002027
:10191000380000203C00002000100240FFF3FFFFD1
:10192000F0B50027B1B00EAB9F80D44B1FAC08338D
:101930001F93D34B8022A3622D932EAB1F70812364
:101940009200E26262630EAA9B181F7082239B18AA
:101950001F702FAB1F700FAB63610123C949CA48C9
:101960005B426760A7602773216323832061E7617F
:101970002784676217812600FFF75AF9B26AF36A73
:1019800015005B00D31810A9AB420ED02A78012AAB
:1019900007D86878A218107601202A788854023572
:1019A000F2E72A88B9488242F9D12D95B36AAB4251
:1019B00005D126970836012F14D00127DEE7F26AF9
:1019C00052009B189D4200D1CBE00A230EAA9B181F
:1019D000190010A82697FFF7C4F80A230EAA9B182F
:1019E0009842E7D1269AD300E318D96A9B6A490046
:1019F0005B189D4206D1012127AB99540023269301
:101A0000299B2D930A250EABED18290010A8FFF78E
:101A1000A8F882270EAB0090FF18A84200D0A4E0DF
:101A2000022225A9606900F04DFA002345203B7091
:101A30000EABC018C37F002B11D1269B002B0ED0FC
:101A4000E36A924F5A00299B19009A180B008A42A8
:101A500000D090E013009B1A5A1E9341C377462191
:101A60000EABC918CB7F002B13D1269B012B10D0B6
:101A7000636B2B9A5B00854FD3181000934204D000
:101A80000232961E3688BE42F7D01B1A581E83417A
:101A9000CB7766270EABFF18390027A8FFF78FF822
:101AA000B84204D081230EAA9B1803221A70802307
:101AB000226911690B431361009BAB4202D00023E2
:101AC0000EAA93802000FFF70BFA11A8FFF78EFBF8
:101AD000169B17A80493159B01260593149B00934E
:101AE000139B0193FFF742FC1E9B102006931D9B46
:101AF00007931C9B08931B9B09931A9B0393199BA9
:101B00000A93189B0B93179B0293FFF74FFD050059
:101B1000FFF736FE07002800FFF79AFE04002800B2
:101B2000FFF714FB0A230EAA9B1800221A800FAAA3
:101B3000A16813888B4200D28BB264211380BB68EA
:101B400098B203099C46524B4A1095005D192868CB
:101B5000604502D98A1A2B1D013A002A12DD1100B4
:101B6000F2E7012227ABDA5524E70122269927ABB9
:101B70005A5405235AE702318E1E3688BE4200D1E0
:101B800064E768E7424A0EA99B1A0A229B10521882
:101B90009BB21380138812889BB20021132A03D9A9
:101BA00028319942894149420298FFF7B7F90098D4
:101BB000FFF7AAF9002804D00298FFF7A5F97040B2
:101BC000C0B201000698FFF7A9F901000798FFF7D6
:101BD000A5F90198FFF798F9002804D00298FFF7BB
:101BE00093F97040C0B201000398FFF797F9010024
:101BF0000A98FFF793F90398FFF786F90198FFF722
:101C000083F90098FFF780F90500A068FEF71CFF34
:101C10000FAB0C900D911888FEF7DAFE1D4A1E4B93
:101C2000FEF74EFC02000B000C980D99FEF718FB16
:101C30000100481E814109982940FFF76FF900987B
:101C4000FFF762F905000498FFF75EF901007140A3
:101C50002940C9B20898FFF761F90198FFF754F9D4
:101C600005000598FFF750F9010071402940C9B2FD
:101C70000B98FFF753F930BF59E7C046E020000842
:101C8000006800080064000800200240FFFF000018
:101C9000441F00089A9999999999D93F10B5012242
:101CA00000243A4B1C605C609C605A61DC601C61E3
:101CB000374B1968914319603649596004219C607B
:101CC00018680143196002211868014319601968F6
:101CD00031480A431A6084222100520000F0FBF8C8
:101CE00019222E4B1C601A712D4B02321C601A7186
:101CF0002C4B0E3A1C601A712B4B03321C601A716C
:101D00002A4B073A1C601A71294B01321C601A7168
:101D1000284B1C601A71284B01321C601A71274B2A
:101D20001C601A71264B063A1C601A71254B1C6008
:101D30001A71254B01321A711C60244B1A711C60F8
:101D40000723234A14601371224A14601371224A34
:101D500014601371214A14601371214A14601371C5
:101D6000204A14601371204A146013711F4A1460D2
:101D700013711F4A146013711E4A146013711E4AB6
:101D8000146013711D4A1460137110BD24030020E8
:101D900010E000E07FBB000054010020040300209D
:101DA0001C0300200C030020140300205C02002010
:101DB000640200206C020020740200207C020020DB
:101DC000840200208C020020C4020020CC020020EB
:101DD000D4020020DC020020E4020020EC020020FB
:101DE000F4020020FC020020940200209C0200204B
:101DF000A4020020AC020020B4020020BC0200209B
:101E00000D4885460D480E490E4A002302E0D4587D
:101E1000C4500433C4188C42F9D30B4A0B4C002332
:101E200001E013600432A242FBD3FFF7ABF900F0EC
:101E300025F8FFF775FDFEE70010002000000020E8
:101E400004000020F8200008040000203C030020CB
:101E5000FEE70B0010B50100180000F001F810BDFE
:101E600010B5040004481300002804D00A00022022
:101E7000210000E000BF10BD0000000070B500268A
:101E80000C4D0D4C641BA410A64209D1002600F095
:101E90002BF80A4D0A4C641BA410A64205D170BD54
:101EA000B300EB5898470136EEE7B300EB5898477C
:101EB0000136F2E7EC200008EC200008EC200008D6
:101EC000F4200008002310B59A4200D110BDCC5C6C
:101ED000C4540133F8E703001218934200D170474D
:101EE00019700133F9E70000F8B5C046F8BC08BC2A
:101EF0009E467047F8B5C046F8BC08BC9E46704781
:101F0000F4060008960500089605000894050008E8
:101F10009C0500089C050008B4060008940500080C
:101F20009C050008B40600089C05000894050008FC
:101F3000B0060008B0060008B0060008C006000899
:101F40001A190000FE0D0000E40D0000C90D00008C
:101F5000AD0D00008F0D0000770D0000590D000041
:101F6000390D0000190D0000F70C0000DB0C00001B
:101F7000B80C0000950C0000700C00004B0C000029
:101F80002B0C0000040C0000DC0B0000B40B000064
:101F90008A0B0000690B00003F0B0000150B0000CE
:101FA000E90A0000BD0A0000980A00006C0A00005F
:101FB0003F0A0000110A0000E3090000BE0900000A
:101FC00090090000610900003209000002090000C8
:101FD000DB080000AD0800007E0800004F0800008C
:101FE00020080000FA070000CD070000A00700004D
:101FF000730700004607000022070000F6060000F5
:10200000CB060000A0060000750600005306000085
:102010002A06000002060000DA050000B2050000F2
:10202000920500006C050000460500002205000036
:10203000FD040000E0040000BE0400009C04000059
:102040007B0400005A04000040040000210400004A
:1020500003040000E5030000C8030000B103000012
:10206000960300007B0300006103000047030000AB
:10207000330300001B03000004030000ED02000016
:10208000D6020000C5020000B00200009B02000062
:102090008702000074020000650200005302000085
:1020A00042020000300200001F0200001302000084
:1020B00003020000F4010000E5010000D50100006A
:1020C000CB010000BD010000B0010000A301000031
:1020D0009601000000000000000000001D0B000839
:0C20E00000000000000000006D0C000873
:0820EC00E90000089D1C00083A
:0420F400C10000081F
:0420F80000000000E4
:0400000508001E01D0
:00000001FF
